{
  "contractName": "EventsBlockbusterEvents",
  "abi": [
    {
      "anonymous": false,
      "inputs": [
        {
          "indexed": false,
          "internalType": "uint256",
          "name": "eventId",
          "type": "uint256"
        },
        {
          "indexed": false,
          "internalType": "string",
          "name": "eventName",
          "type": "string"
        },
        {
          "indexed": false,
          "internalType": "address",
          "name": "buyer",
          "type": "address"
        },
        {
          "indexed": false,
          "internalType": "string",
          "name": "location",
          "type": "string"
        }
      ],
      "name": "Registered",
      "type": "event"
    },
    {
      "constant": true,
      "inputs": [
        {
          "internalType": "address",
          "name": "",
          "type": "address"
        }
      ],
      "name": "balances",
      "outputs": [
        {
          "internalType": "uint256",
          "name": "",
          "type": "uint256"
        }
      ],
      "payable": false,
      "stateMutability": "view",
      "type": "function"
    },
    {
      "constant": true,
      "inputs": [],
      "name": "eventCount",
      "outputs": [
        {
          "internalType": "uint256",
          "name": "",
          "type": "uint256"
        }
      ],
      "payable": false,
      "stateMutability": "view",
      "type": "function"
    },
    {
      "constant": true,
      "inputs": [],
      "name": "owner",
      "outputs": [
        {
          "internalType": "address",
          "name": "",
          "type": "address"
        }
      ],
      "payable": false,
      "stateMutability": "view",
      "type": "function"
    },
    {
      "constant": false,
      "inputs": [
        {
          "internalType": "address",
          "name": "newOwner",
          "type": "address"
        }
      ],
      "name": "transferOwnership",
      "outputs": [],
      "payable": false,
      "stateMutability": "nonpayable",
      "type": "function"
    },
    {
      "constant": false,
      "inputs": [
        {
          "internalType": "string",
          "name": "_eventName",
          "type": "string"
        },
        {
          "internalType": "string",
          "name": "_eventImg",
          "type": "string"
        },
        {
          "internalType": "string",
          "name": "_eventDesc",
          "type": "string"
        },
        {
          "internalType": "string",
          "name": "_eventLoc",
          "type": "string"
        },
        {
          "internalType": "uint256",
          "name": "_eventDate",
          "type": "uint256"
        },
        {
          "internalType": "uint256",
          "name": "_eventSeats",
          "type": "uint256"
        },
        {
          "internalType": "uint256",
          "name": "_stake",
          "type": "uint256"
        },
        {
          "internalType": "uint256",
          "name": "_price",
          "type": "uint256"
        }
      ],
      "name": "createEvent",
      "outputs": [],
      "payable": false,
      "stateMutability": "nonpayable",
      "type": "function"
    },
    {
      "constant": true,
      "inputs": [
        {
          "internalType": "uint256",
          "name": "_eventCount",
          "type": "uint256"
        }
      ],
      "name": "getEventDetails",
      "outputs": [
        {
          "internalType": "uint256",
          "name": "",
          "type": "uint256"
        },
        {
          "internalType": "address",
          "name": "",
          "type": "address"
        },
        {
          "internalType": "string",
          "name": "",
          "type": "string"
        },
        {
          "internalType": "string",
          "name": "",
          "type": "string"
        },
        {
          "internalType": "string",
          "name": "",
          "type": "string"
        },
        {
          "internalType": "string",
          "name": "",
          "type": "string"
        },
        {
          "internalType": "uint256",
          "name": "",
          "type": "uint256"
        },
        {
          "internalType": "uint256",
          "name": "",
          "type": "uint256"
        },
        {
          "internalType": "uint256",
          "name": "",
          "type": "uint256"
        },
        {
          "internalType": "uint256",
          "name": "",
          "type": "uint256"
        }
      ],
      "payable": false,
      "stateMutability": "view",
      "type": "function"
    },
    {
      "constant": false,
      "inputs": [
        {
          "internalType": "uint256",
          "name": "_eventID",
          "type": "uint256"
        }
      ],
      "name": "activateEvent",
      "outputs": [],
      "payable": false,
      "stateMutability": "nonpayable",
      "type": "function"
    },
    {
      "constant": false,
      "inputs": [
        {
          "internalType": "uint256",
          "name": "_eventID",
          "type": "uint256"
        }
      ],
      "name": "deactivateEvent",
      "outputs": [],
      "payable": false,
      "stateMutability": "nonpayable",
      "type": "function"
    },
    {
      "constant": false,
      "inputs": [
        {
          "internalType": "uint256",
          "name": "_eventID",
          "type": "uint256"
        }
      ],
      "name": "finishEvent",
      "outputs": [],
      "payable": false,
      "stateMutability": "nonpayable",
      "type": "function"
    },
    {
      "constant": true,
      "inputs": [
        {
          "internalType": "uint256",
          "name": "_eventID",
          "type": "uint256"
        }
      ],
      "name": "isEventFinished",
      "outputs": [
        {
          "internalType": "bool",
          "name": "",
          "type": "bool"
        }
      ],
      "payable": false,
      "stateMutability": "view",
      "type": "function"
    },
    {
      "constant": true,
      "inputs": [
        {
          "internalType": "uint256",
          "name": "_eventID",
          "type": "uint256"
        }
      ],
      "name": "isEventActive",
      "outputs": [
        {
          "internalType": "bool",
          "name": "",
          "type": "bool"
        }
      ],
      "payable": false,
      "stateMutability": "view",
      "type": "function"
    },
    {
      "constant": false,
      "inputs": [
        {
          "internalType": "uint256",
          "name": "_eventID",
          "type": "uint256"
        },
        {
          "internalType": "address",
          "name": "_attendee",
          "type": "address"
        }
      ],
      "name": "eventAttendance",
      "outputs": [],
      "payable": false,
      "stateMutability": "nonpayable",
      "type": "function"
    },
    {
      "constant": false,
      "inputs": [
        {
          "internalType": "uint256",
          "name": "_eventID",
          "type": "uint256"
        }
      ],
      "name": "withdrawFromEvent",
      "outputs": [],
      "payable": false,
      "stateMutability": "nonpayable",
      "type": "function"
    },
    {
      "constant": true,
      "inputs": [
        {
          "internalType": "uint256",
          "name": "_eventID",
          "type": "uint256"
        },
        {
          "internalType": "address",
          "name": "_a",
          "type": "address"
        }
      ],
      "name": "verifyReg",
      "outputs": [
        {
          "internalType": "bool",
          "name": "",
          "type": "bool"
        }
      ],
      "payable": false,
      "stateMutability": "view",
      "type": "function"
    },
    {
      "constant": true,
      "inputs": [
        {
          "internalType": "uint256",
          "name": "_eventID",
          "type": "uint256"
        }
      ],
      "name": "getEventIncome",
      "outputs": [
        {
          "internalType": "uint256",
          "name": "",
          "type": "uint256"
        }
      ],
      "payable": false,
      "stateMutability": "view",
      "type": "function"
    },
    {
      "constant": false,
      "inputs": [
        {
          "internalType": "uint256",
          "name": "_eventID",
          "type": "uint256"
        }
      ],
      "name": "register",
      "outputs": [],
      "payable": true,
      "stateMutability": "payable",
      "type": "function"
    },
    {
      "constant": false,
      "inputs": [
        {
          "internalType": "uint256",
          "name": "_eventID",
          "type": "uint256"
        }
      ],
      "name": "stakeAndRegister",
      "outputs": [],
      "payable": true,
      "stateMutability": "payable",
      "type": "function"
    },
    {
      "constant": false,
      "inputs": [
        {
          "internalType": "uint256",
          "name": "_eventID",
          "type": "uint256"
        }
      ],
      "name": "retStake",
      "outputs": [],
      "payable": false,
      "stateMutability": "nonpayable",
      "type": "function"
    },
    {
      "constant": false,
      "inputs": [],
      "name": "withdraw",
      "outputs": [],
      "payable": false,
      "stateMutability": "nonpayable",
      "type": "function"
    }
  ],
  "bytecode": "0x6080604052600080546001600160a01b03191633179055611bca806100256000396000f3fe6080604052600436106101145760003560e01c8063957a632e116100a0578063dc2adf7011610064578063dc2adf70146105ac578063ebf03feb146105d6578063ec38d5a014610600578063f207564e14610810578063f2fde38b1461082d57610114565b8063957a632e146102b2578063978a07b8146102dc578063982fb7b81461052e578063afceb3f314610558578063c32c2e0b1461058257610114565b8063694175cc116100e7578063694175cc146101d857806371be2e4a146101f557806374908b671461020a57806380e0a22a146102345780638da5cb5b1461028157610114565b806325b752f11461011957806327e235e3146101455780632b5d31cf1461018a5780633ccfd60b146101c3575b600080fd5b34801561012557600080fd5b506101436004803603602081101561013c57600080fd5b5035610860565b005b34801561015157600080fd5b506101786004803603602081101561016857600080fd5b50356001600160a01b0316610902565b60408051918252519081900360200190f35b34801561019657600080fd5b50610143600480360360408110156101ad57600080fd5b50803590602001356001600160a01b0316610914565b3480156101cf57600080fd5b506101436109c9565b610143600480360360208110156101ee57600080fd5b5035610a13565b34801561020157600080fd5b50610178610c20565b34801561021657600080fd5b506101786004803603602081101561022d57600080fd5b5035610c26565b34801561024057600080fd5b5061026d6004803603604081101561025757600080fd5b50803590602001356001600160a01b0316610c3b565b604080519115158252519081900360200190f35b34801561028d57600080fd5b50610296610c6a565b604080516001600160a01b039092168252519081900360200190f35b3480156102be57600080fd5b50610143600480360360208110156102d557600080fd5b5035610c79565b3480156102e857600080fd5b50610143600480360361010081101561030057600080fd5b810190602081018135600160201b81111561031a57600080fd5b82018360208201111561032c57600080fd5b803590602001918460018302840111600160201b8311171561034d57600080fd5b91908080601f0160208091040260200160405190810160405280939291908181526020018383808284376000920191909152509295949360208101935035915050600160201b81111561039f57600080fd5b8201836020820111156103b157600080fd5b803590602001918460018302840111600160201b831117156103d257600080fd5b91908080601f0160208091040260200160405190810160405280939291908181526020018383808284376000920191909152509295949360208101935035915050600160201b81111561042457600080fd5b82018360208201111561043657600080fd5b803590602001918460018302840111600160201b8311171561045757600080fd5b91908080601f0160208091040260200160405190810160405280939291908181526020018383808284376000920191909152509295949360208101935035915050600160201b8111156104a957600080fd5b8201836020820111156104bb57600080fd5b803590602001918460018302840111600160201b831117156104dc57600080fd5b91908080601f0160208091040260200160405190810160405280939291908181526020018383808284376000920191909152509295505082359350505060208101359060408101359060600135610cc0565b34801561053a57600080fd5b506101436004803603602081101561055157600080fd5b5035610db5565b34801561056457600080fd5b506101436004803603602081101561057b57600080fd5b5035610e19565b34801561058e57600080fd5b5061026d600480360360208110156105a557600080fd5b5035610f0a565b3480156105b857600080fd5b5061026d600480360360208110156105cf57600080fd5b5035611266565b3480156105e257600080fd5b50610143600480360360208110156105f957600080fd5b50356115c2565b34801561060c57600080fd5b5061062a6004803603602081101561062357600080fd5b503561160c565b604051808b81526020018a6001600160a01b03166001600160a01b031681526020018060200180602001806020018060200189815260200188815260200187815260200186815260200185810385528d818151815260200191508051906020019080838360005b838110156106a9578181015183820152602001610691565b50505050905090810190601f1680156106d65780820380516001836020036101000a031916815260200191505b5085810384528c5181528c516020918201918e019080838360005b838110156107095781810151838201526020016106f1565b50505050905090810190601f1680156107365780820380516001836020036101000a031916815260200191505b5085810383528b5181528b516020918201918d019080838360005b83811015610769578181015183820152602001610751565b50505050905090810190601f1680156107965780820380516001836020036101000a031916815260200191505b5085810382528a5181528a516020918201918c019080838360005b838110156107c95781810151838201526020016107b1565b50505050905090810190601f1680156107f65780820380516001836020036101000a031916815260200191505b509e50505050505050505050505050505060405180910390f35b6101436004803603602081101561082657600080fd5b50356118de565b34801561083957600080fd5b506101436004803603602081101561085057600080fd5b50356001600160a01b0316611a36565b600081815260026020526040902060018101548291906001600160a01b0316331461088a57600080fd5b6000838152600260205260409020600c81015460ff6101009091041615156001146108b457600080fd5b6001810154600b8201546040516001600160a01b039092169181156108fc0291906000818181858888f193505050501580156108f4573d6000803e3d6000fd5b506000600b90910155505050565b60036020526000908152604090205481565b600082815260026020526040902060018101548391906001600160a01b0316331461093e57600080fd5b6000848152600260205260409020600c810154610100900460ff161561096357600080fd5b6001600160a01b0384166000908152600d8201602052604090205460ff16151560011461098f57600080fd5b600e018054600181018255600091825260209091200180546001600160a01b0319166001600160a01b039490941693909317909255505050565b3360008181526003602052604080822054905181156108fc0292818181858888f19350505050158015610a00573d6000803e3d6000fd5b5033600090815260036020526040812055565b6000818152600260205260409020600c810154610100900460ff1615610a3857600080fd5b600c81015460ff161515600114610a4e57600080fd5b3481600801541115610a5f57600080fd5b600981015415610a6e57600080fd5b336000908152600d8201602052604090205460ff1615610a8d57600080fd5b600181600701541015610a9f57600080fd5b600781018054600019908101909155600a8201805434019055336000818152600d84016020908152604091829020805460ff19166001908117909155855483518181529384018590526080928401838152600280890180549485161561010002909801909316929092049284018390527f23af0023dde8f6ca29508a961d1355c4b8a9c8398d344fe55de3ce9331cb8d6395909490939092600588019290606083019060a084019087908015610b965780601f10610b6b57610100808354040283529160200191610b96565b820191906000526020600020905b815481529060010190602001808311610b7957829003601f168201915b5050838103825284546002600019610100600184161502019091160480825260209091019085908015610c0a5780601f10610bdf57610100808354040283529160200191610c0a565b820191906000526020600020905b815481529060010190602001808311610bed57829003601f168201915b5050965050505050505060405180910390a15050565b60015481565b6000908152600260205260409020600b015490565b60008281526002602090815260408083206001600160a01b0385168452600d0190915290205460ff1692915050565b6000546001600160a01b031681565b600081815260026020526040902060018101548291906001600160a01b03163314610ca357600080fd5b50506000908152600260205260409020600c01805460ff19169055565b6001805481019081905560009081526002602052604090208215801590610ce5575081155b80610cf95750600082118015610cf9575082155b80610d0b575082158015610d0b575081155b610d1457600080fd5b600180548255810180546001600160a01b031916331790558851610d4190600283019060208c0190611a77565b508751610d5790600383019060208b0190611a77565b508551610d6d9060058301906020890190611a77565b5060068101859055600781018490558651610d9190600483019060208a0190611a77565b5060088101929092556009820155600c01805460ff19166001179055505050505050565b600081815260026020526040902060018101548291906001600160a01b03163314610ddf57600080fd5b6000838152600260205260409020600c810154610100900460ff1615610e0457600080fd5b600c01805461ffff1916610100179055505050565b600081815260026020526040902060018101548291906001600160a01b03163314610e4357600080fd5b6000838152600260205260409020600c81015460ff610100909104161515600114610e6d57600080fd5b600081600a015411610e7e57600080fd5b600e8101546008820154600a830154600092918202900381610e9c57fe5b04905060005b600e830154811015610efb57818360080154016003600085600e018481548110610ec857fe5b60009182526020808320909101546001600160a01b03168352820192909252604001902080549091019055600101610ea2565b50506000600a90910155505050565b6000610f14611af5565b60008381526002602081815260409283902083516101e081018552815481526001808301546001600160a01b03168285015282850180548751601f6000199483161561010002949094019091169690960491820185900485028601850187528186529195929492860193830182828015610fcf5780601f10610fa457610100808354040283529160200191610fcf565b820191906000526020600020905b815481529060010190602001808311610fb257829003601f168201915b505050918352505060038201805460408051602060026001851615610100026000190190941693909304601f81018490048402820184019092528181529382019392918301828280156110635780601f1061103857610100808354040283529160200191611063565b820191906000526020600020905b81548152906001019060200180831161104657829003601f168201915b505050918352505060048201805460408051602060026001851615610100026000190190941693909304601f81018490048402820184019092528181529382019392918301828280156110f75780601f106110cc576101008083540402835291602001916110f7565b820191906000526020600020905b8154815290600101906020018083116110da57829003601f168201915b505050918352505060058201805460408051602060026001851615610100026000190190941693909304601f810184900484028201840190925281815293820193929183018282801561118b5780601f106111605761010080835404028352916020019161118b565b820191906000526020600020905b81548152906001019060200180831161116e57829003601f168201915b5050509183525050600682015460208083019190915260078301546040808401919091526008840154606084015260098401546080840152600a84015460a0840152600b84015460c0840152600c84015460ff808216151560e08601526101009182900416151590840152600e8401805482518185028101850190935280835261012090940193919290919083018282801561125057602002820191906000526020600020905b81546001600160a01b03168152600190910190602001808311611232575b5050509190925250505061018001519392505050565b6000611270611af5565b60008381526002602081815260409283902083516101e081018552815481526001808301546001600160a01b03168285015282850180548751601f600019948316156101000294909401909116969096049182018590048502860185018752818652919592949286019383018282801561132b5780601f106113005761010080835404028352916020019161132b565b820191906000526020600020905b81548152906001019060200180831161130e57829003601f168201915b505050918352505060038201805460408051602060026001851615610100026000190190941693909304601f81018490048402820184019092528181529382019392918301828280156113bf5780601f10611394576101008083540402835291602001916113bf565b820191906000526020600020905b8154815290600101906020018083116113a257829003601f168201915b505050918352505060048201805460408051602060026001851615610100026000190190941693909304601f81018490048402820184019092528181529382019392918301828280156114535780601f1061142857610100808354040283529160200191611453565b820191906000526020600020905b81548152906001019060200180831161143657829003601f168201915b505050918352505060058201805460408051602060026001851615610100026000190190941693909304601f81018490048402820184019092528181529382019392918301828280156114e75780601f106114bc576101008083540402835291602001916114e7565b820191906000526020600020905b8154815290600101906020018083116114ca57829003601f168201915b5050509183525050600682015460208083019190915260078301546040808401919091526008840154606084015260098401546080840152600a84015460a0840152600b84015460c0840152600c84015460ff808216151560e08601526101009182900416151590840152600e840180548251818502810185019093528083526101209094019391929091908301828280156115ac57602002820191906000526020600020905b81546001600160a01b0316815260019091019060200180831161158e575b505050919092525050506101a001519392505050565b600081815260026020526040902060018101548291906001600160a01b031633146115ec57600080fd5b50506000908152600260205260409020600c01805460ff19166001179055565b6000806060806060806000806000806000600260008d8152602001908152602001600020905080600001548160010160009054906101000a90046001600160a01b0316826002018360040184600301856005018660060154876007015488600801548960090154889850878054600181600116156101000203166002900480601f01602080910402602001604051908101604052809291908181526020018280546001816001161561010002031660029004801561170b5780601f106116e05761010080835404028352916020019161170b565b820191906000526020600020905b8154815290600101906020018083116116ee57829003601f168201915b50508a5460408051602060026001851615610100026000190190941693909304601f8101849004840282018401909252818152959d508c9450925084019050828280156117995780601f1061176e57610100808354040283529160200191611799565b820191906000526020600020905b81548152906001019060200180831161177c57829003601f168201915b5050895460408051602060026001851615610100026000190190941693909304601f8101849004840282018401909252818152959c508b9450925084019050828280156118275780601f106117fc57610100808354040283529160200191611827565b820191906000526020600020905b81548152906001019060200180831161180a57829003601f168201915b5050885460408051602060026001851615610100026000190190941693909304601f8101849004840282018401909252818152959b508a9450925084019050828280156118b55780601f1061188a576101008083540402835291602001916118b5565b820191906000526020600020905b81548152906001019060200180831161189857829003601f168201915b505050505094509a509a509a509a509a509a509a509a509a509a50509193959799509193959799565b6000818152600260205260409020600c810154610100900460ff161561190357600080fd5b600c81015460ff16151560011461191957600080fd5b348160090154111561192a57600080fd5b60088101541561193957600080fd5b336000908152600d8201602052604090205460ff161561195857600080fd5b60018160070154101561196a57600080fd5b600781018054600019908101909155600b8201805434019055336000818152600d84016020908152604091829020805460ff19166001908117909155855483518181529384018590526080928401838152600280890180549485161561010002909801909316929092049284018390527f23af0023dde8f6ca29508a961d1355c4b8a9c8398d344fe55de3ce9331cb8d6395909490939092600588019290606083019060a084019087908015610b965780601f10610b6b57610100808354040283529160200191610b96565b6000546001600160a01b0316331415611a74576001600160a01b03811615611a7457600080546001600160a01b0319166001600160a01b0383161790555b50565b828054600181600116156101000203166002900490600052602060002090601f016020900481019282601f10611ab857805160ff1916838001178555611ae5565b82800160010185558215611ae5579182015b82811115611ae5578251825591602001919060010190611aca565b50611af1929150611b78565b5090565b604051806101e001604052806000815260200160006001600160a01b0316815260200160608152602001606081526020016060815260200160608152602001600081526020016000815260200160008152602001600081526020016000815260200160008152602001600015158152602001600015158152602001606081525090565b611b9291905b80821115611af15760008155600101611b7e565b9056fea265627a7a723158203783cc5ad310a0fa167345323dee222c84f46e0fafb56e9f7165ad1bfc51f2f764736f6c634300050c0032",
  "source": "pragma solidity ^0.5.0;\n\n/// @title This a contract for Hosting Events on Blockchain with Staking\n/// @author Sarang Parikh <sarangparikh22@gmail.com><www.github.com/sarangparikh22>\n/// @notice The contract was created specially for the Consensys Developer Bootcamp \n/// @dev All the functions here are safely implemented with TDD\n\ncontract Ownable {\n  address public owner;\n  \n  constructor() public {\n      owner = msg.sender;\n  }\n  modifier onlyOwner() {\n    if (msg.sender == owner)\n      _;\n  }\n\n  function transferOwnership(address newOwner) public onlyOwner {\n    if (newOwner != address(0)) owner = newOwner;\n  }\n\n}\n\ncontract EventsBlockbusterEvents is Ownable{\n    \n    // State Variables\n    uint public eventCount;\n    mapping(uint => Event)  eventMapping;\n    mapping(address => uint) public balances;\n    mapping(address => mapping(uint => bool)) stakesMapping;\n    \n    event Registered(uint eventId, string eventName, address buyer, string location);\n\n    struct Event {\n        uint eventID;\n        address payable eventOwner;\n        string eventName;\n        string eventImg;\n        string eventDesc;\n        string eventLoc;\n        uint eventDate;\n        uint seats;\n        uint stake;\n        uint price;\n        uint stakeRev;\n        uint priceRev;\n        bool active;\n        bool finish;\n        mapping(address => bool) attendees;\n        address[] attended;\n    }\n    // Modifiers\n    modifier eventOwnerOnly(uint _eventID) {\n        Event storage e = eventMapping[_eventID];\n        require(e.eventOwner == msg.sender);\n        _;\n    }\n    // Event Manager Functions\n\n    /// @notice Create Event for Hosting\n    /// @dev It can be only called by anyone.\n    /// @param _eventName Name of the Event\n    /// @param _eventImg IPFS Hash of the Image\n    /// @param _eventDesc Description of the Event\n    /// @param _eventLoc Address of the Event\n    /// @param _eventDate Date and Time of the Event in epoch format\n    /// @param _eventSeats Total no. of Seats Allocated\n    /// @param _stake Amount to be Staked for Registration\n    /// @param _price Price per Ticket\n    function createEvent(string memory _eventName, string memory _eventImg, string memory _eventDesc, string memory _eventLoc, uint _eventDate, uint _eventSeats,uint _stake, uint _price) public {\n        eventCount++;\n        Event storage e = eventMapping[eventCount];\n        require((_stake > 0 && _price == 0) || (_price > 0 && _stake == 0) || (_stake == 0 && _price == 0));\n        e.eventID = eventCount;\n        e.eventOwner = msg.sender;\n        e.eventName = _eventName;\n        e.eventImg = _eventImg;\n        e.eventLoc = _eventLoc;\n        e.eventDate = _eventDate;\n        e.seats = _eventSeats;\n        e.eventDesc = _eventDesc;\n        e.stake = _stake;\n        e.price = _price;\n        e.active = true;\n    }\n    \n    /// @notice Get Details of the Event\n    /// @dev It can be only called by the Registered Halls.\n    /// @param _eventCount The Event ID whoose details has to be viewed\n    /// @return Event ID\n    /// @return Event Owner\n    /// @return Event Owner\n    /// @return Event Description\n    /// @return Event Image IPFS Hash\n    /// @return Event Location Physical Address\n    /// @return Date and Time of the Event in epoch format\n    /// @return Seats Left\n    /// @return Stake Amount\n    /// @return Price per Ticket\n    function getEventDetails(uint _eventCount) public view returns(uint, address, string memory, string memory, string memory, string memory, uint, uint, uint, uint){\n       Event storage e = eventMapping[_eventCount];\n       return (e.eventID, e.eventOwner, e.eventName, e.eventDesc, e.eventImg, e.eventLoc, e.eventDate, e.seats, e.stake, e.price);\n    }\n    \n    /// @notice Activate Event\n    /// @dev It can be only called by the Event Owners.\n    /// @param _eventID The Event ID\n    function activateEvent(uint _eventID) public eventOwnerOnly(_eventID) {\n        Event storage e = eventMapping[_eventID];\n        e.active = true;\n    }\n\n    /// @notice Deactivate Event\n    /// @dev It can be only called by the Event Owners.\n    /// @param _eventID The Event ID\n    function deactivateEvent(uint _eventID) public eventOwnerOnly(_eventID) {\n        Event storage e = eventMapping[_eventID];\n        e.active = false;\n    }\n    \n    /// @notice Finish or End Event\n    /// @dev It can be only called by the Event Owners.\n    /// @param _eventID The Event ID\n    function finishEvent(uint _eventID) public eventOwnerOnly(_eventID) {\n        Event storage e = eventMapping[_eventID];\n        require(e.finish == false);\n        e.active = false;\n        e.finish = true;\n    }\n\n    /// @notice Querying for Event Finished Status\n    /// @dev It can be only called by anyone.\n    /// @param _eventID The Event ID\n    /// @return True for Event Finished and False for Event not Finished\n    function isEventFinished(uint _eventID) public view returns(bool){\n            Event memory e = eventMapping[_eventID];\n            return e.finish;\n    }\n\n    /// @notice Querying for Event Active Status\n    /// @dev It can be only called by anyone.\n    /// @param _eventID The Event ID\n    /// @return True for Event Active and False for Event not Active\n    function isEventActive(uint _eventID) public view returns(bool){\n            Event memory e = eventMapping[_eventID];\n            return e.active;\n    }\n\n    /// @notice Mark Attendance of the Participants\n    /// @dev It can be only called by Event Owners Only and Attendee should have bought ticket\n    /// @param _eventID The Event ID\n    /// @param _attendee Address of the Person who Attended the Meetup\n    function eventAttendance(uint _eventID, address _attendee) public eventOwnerOnly(_eventID) {\n        Event storage e = eventMapping[_eventID];\n        require(e.finish == false);\n        require(e.attendees[_attendee] == true);\n        e.attended.push(_attendee);\n    }\n\n    /// @notice Withdraw Money from Event\n    /// @dev It can be only called by Event Owner. The event should be finished before calling this.\n    /// @param _eventID The Event ID\n    function withdrawFromEvent(uint _eventID) public eventOwnerOnly(_eventID) {\n        Event storage e = eventMapping[_eventID];\n        require(e.finish == true);\n        e.eventOwner.transfer(e.priceRev);\n        e.priceRev = 0;\n    }\n\n\n    /// @notice Querying for Attendance\n    /// @dev It can be only called by anyone.\n    /// @param _eventID The Event ID\n    /// @param _a Address of the Attendee\n    /// @return True if they have ticket and False if they don't have ticket\n    function verifyReg(uint _eventID, address _a) public view returns(bool){\n      Event storage e = eventMapping[_eventID];\n      return e.attendees[_a];\n    }\n\n    /// @notice Querying for Event Income\n    /// @dev It can be only called by anyone.\n    /// @param _eventID The Event ID\n    /// @return Income of the event in wei\n    function getEventIncome(uint _eventID) public view returns(uint) {\n      Event storage e = eventMapping[_eventID];\n      return e.priceRev;\n    }\n\n    /// @notice Register for Event with Price\n    /// @dev It can be only called by anyone and is Payable\n    /// @param _eventID The Event ID\n    function register(uint _eventID) public payable {\n        Event storage e = eventMapping[_eventID];\n        require(e.finish == false);\n        require(e.active == true);\n        require(e.price <= msg.value);\n        require(e.stake == 0);\n        require(e.attendees[msg.sender] == false);\n        require(e.seats >= 1);\n        e.seats -= 1;\n        e.priceRev += msg.value;\n        e.attendees[msg.sender] = true;\n        emit Registered(e.eventID, e.eventName, msg.sender, e.eventLoc);\n    }\n\n    /// @notice Register for Event with Stake\n    /// @dev It can be only called by anyone and is Payable\n    /// @param _eventID The Event ID\n    function stakeAndRegister(uint _eventID) public payable {\n        Event storage e = eventMapping[_eventID];\n        require(e.finish == false);\n        require(e.active == true);\n        require(e.stake <= msg.value);\n        require(e.price == 0);\n        require(e.attendees[msg.sender] == false);\n        require(e.seats >= 1);\n        e.seats -= 1;\n        e.stakeRev += msg.value;\n        e.attendees[msg.sender] = true;\n        emit Registered(e.eventID, e.eventName, msg.sender, e.eventLoc);\n    }\n    \n    /// @notice Divide and Distribute Stakes\n    /// @dev It can be only called by Event Owner after event is finished\n    /// @param _eventID The Event ID\n    function retStake(uint _eventID) public eventOwnerOnly(_eventID) {\n        Event storage e = eventMapping[_eventID];\n        require(e.finish == true);\n        require(e.stakeRev > 0);\n        uint toDistribute = (e.stakeRev - (e.stake * e.attended.length)) / e.attended.length;\n        for(uint i = 0; i<e.attended.length;i++){\n            balances[e.attended[i]] += e.stake + toDistribute;\n        }\n        e.stakeRev = 0;\n    }\n    \n    /// @notice Withdraw Stake Money\n    /// @dev It can be only called by anyone.\n    function withdraw() public {\n        msg.sender.transfer(balances[msg.sender]);\n        balances[msg.sender] = 0;\n    }\n    \n}",
  "sourcePath": "/home/saru/Blockchain/Final-Project/FYP/blockbuster-events/contracts/EventsBlockbusterEvents.sol",
  "compiler": {
    "name": "solc",
    "version": "0.5.12+commit.7709ece9.Emscripten.clang"
  },
  "schemaVersion": "3.0.20",
  "updatedAt": "2020-03-29T09:49:08.217Z",
  "networkType": "ethereum",
  "devdoc": {
    "methods": {
      "activateEvent(uint256)": {
        "details": "It can be only called by the Event Owners.",
        "params": {
          "_eventID": "The Event ID"
        }
      },
      "createEvent(string,string,string,string,uint256,uint256,uint256,uint256)": {
        "details": "It can be only called by anyone.",
        "params": {
          "_eventDate": "Date and Time of the Event in epoch format",
          "_eventDesc": "Description of the Event",
          "_eventImg": "IPFS Hash of the Image",
          "_eventLoc": "Address of the Event",
          "_eventName": "Name of the Event",
          "_eventSeats": "Total no. of Seats Allocated",
          "_price": "Price per Ticket",
          "_stake": "Amount to be Staked for Registration"
        }
      },
      "deactivateEvent(uint256)": {
        "details": "It can be only called by the Event Owners.",
        "params": {
          "_eventID": "The Event ID"
        }
      },
      "eventAttendance(uint256,address)": {
        "details": "It can be only called by Event Owners Only and Attendee should have bought ticket",
        "params": {
          "_attendee": "Address of the Person who Attended the Meetup",
          "_eventID": "The Event ID"
        }
      },
      "finishEvent(uint256)": {
        "details": "It can be only called by the Event Owners.",
        "params": {
          "_eventID": "The Event ID"
        }
      },
      "getEventDetails(uint256)": {
        "details": "It can be only called by the Registered Halls.",
        "params": {
          "_eventCount": "The Event ID whoose details has to be viewed"
        },
        "return": "Event IDEvent OwnerEvent OwnerEvent DescriptionEvent Image IPFS HashEvent Location Physical AddressDate and Time of the Event in epoch formatSeats LeftStake AmountPrice per Ticket"
      },
      "getEventIncome(uint256)": {
        "details": "It can be only called by anyone.",
        "params": {
          "_eventID": "The Event ID"
        },
        "return": "Income of the event in wei"
      },
      "isEventActive(uint256)": {
        "details": "It can be only called by anyone.",
        "params": {
          "_eventID": "The Event ID"
        },
        "return": "True for Event Active and False for Event not Active"
      },
      "isEventFinished(uint256)": {
        "details": "It can be only called by anyone.",
        "params": {
          "_eventID": "The Event ID"
        },
        "return": "True for Event Finished and False for Event not Finished"
      },
      "register(uint256)": {
        "details": "It can be only called by anyone and is Payable",
        "params": {
          "_eventID": "The Event ID"
        }
      },
      "retStake(uint256)": {
        "details": "It can be only called by Event Owner after event is finished",
        "params": {
          "_eventID": "The Event ID"
        }
      },
      "stakeAndRegister(uint256)": {
        "details": "It can be only called by anyone and is Payable",
        "params": {
          "_eventID": "The Event ID"
        }
      },
      "verifyReg(uint256,address)": {
        "details": "It can be only called by anyone.",
        "params": {
          "_a": "Address of the Attendee",
          "_eventID": "The Event ID"
        },
        "return": "True if they have ticket and False if they don't have ticket"
      },
      "withdraw()": {
        "details": "It can be only called by anyone."
      },
      "withdrawFromEvent(uint256)": {
        "details": "It can be only called by Event Owner. The event should be finished before calling this.",
        "params": {
          "_eventID": "The Event ID"
        }
      }
    }
  },
  "userdoc": {
    "methods": {
      "activateEvent(uint256)": {
        "notice": "Activate Event"
      },
      "createEvent(string,string,string,string,uint256,uint256,uint256,uint256)": {
        "notice": "Create Event for Hosting"
      },
      "deactivateEvent(uint256)": {
        "notice": "Deactivate Event"
      },
      "eventAttendance(uint256,address)": {
        "notice": "Mark Attendance of the Participants"
      },
      "finishEvent(uint256)": {
        "notice": "Finish or End Event"
      },
      "getEventDetails(uint256)": {
        "notice": "Get Details of the Event"
      },
      "getEventIncome(uint256)": {
        "notice": "Querying for Event Income"
      },
      "isEventActive(uint256)": {
        "notice": "Querying for Event Active Status"
      },
      "isEventFinished(uint256)": {
        "notice": "Querying for Event Finished Status"
      },
      "register(uint256)": {
        "notice": "Register for Event with Price"
      },
      "retStake(uint256)": {
        "notice": "Divide and Distribute Stakes"
      },
      "stakeAndRegister(uint256)": {
        "notice": "Register for Event with Stake"
      },
      "verifyReg(uint256,address)": {
        "notice": "Querying for Attendance"
      },
      "withdraw()": {
        "notice": "Withdraw Stake Money"
      },
      "withdrawFromEvent(uint256)": {
        "notice": "Withdraw Money from Event"
      }
    }
  }
}