{
  "contractName": "MoviesBlockbusterEvents",
  "abi": [
    {
      "inputs": [],
      "payable": false,
      "stateMutability": "nonpayable",
      "type": "constructor"
    },
    {
      "anonymous": false,
      "inputs": [
        {
          "indexed": false,
          "internalType": "uint256",
          "name": "movieID",
          "type": "uint256"
        },
        {
          "indexed": false,
          "internalType": "address",
          "name": "hall",
          "type": "address"
        },
        {
          "indexed": false,
          "internalType": "string",
          "name": "movieName",
          "type": "string"
        },
        {
          "indexed": false,
          "internalType": "string",
          "name": "movieIMDB",
          "type": "string"
        },
        {
          "indexed": false,
          "internalType": "enum MoviesBlockbusterEvents.Format",
          "name": "format",
          "type": "uint8"
        },
        {
          "indexed": false,
          "internalType": "uint256",
          "name": "time",
          "type": "uint256"
        },
        {
          "indexed": false,
          "internalType": "uint256",
          "name": "seatsLeft",
          "type": "uint256"
        },
        {
          "indexed": false,
          "internalType": "uint256",
          "name": "price",
          "type": "uint256"
        },
        {
          "indexed": false,
          "internalType": "bool",
          "name": "active",
          "type": "bool"
        },
        {
          "indexed": false,
          "internalType": "bool",
          "name": "cancellation",
          "type": "bool"
        }
      ],
      "name": "AddMovie",
      "type": "event"
    },
    {
      "anonymous": false,
      "inputs": [
        {
          "indexed": false,
          "internalType": "address",
          "name": "buyer",
          "type": "address"
        },
        {
          "indexed": false,
          "internalType": "address",
          "name": "hall",
          "type": "address"
        },
        {
          "indexed": false,
          "internalType": "uint256",
          "name": "movieID",
          "type": "uint256"
        },
        {
          "indexed": false,
          "internalType": "uint256",
          "name": "tickets",
          "type": "uint256"
        }
      ],
      "name": "BuyTicket",
      "type": "event"
    },
    {
      "anonymous": false,
      "inputs": [
        {
          "indexed": false,
          "internalType": "address",
          "name": "account",
          "type": "address"
        }
      ],
      "name": "Paused",
      "type": "event"
    },
    {
      "anonymous": false,
      "inputs": [
        {
          "indexed": true,
          "internalType": "address",
          "name": "account",
          "type": "address"
        }
      ],
      "name": "PauserAdded",
      "type": "event"
    },
    {
      "anonymous": false,
      "inputs": [
        {
          "indexed": true,
          "internalType": "address",
          "name": "account",
          "type": "address"
        }
      ],
      "name": "PauserRemoved",
      "type": "event"
    },
    {
      "anonymous": false,
      "inputs": [
        {
          "indexed": false,
          "internalType": "address",
          "name": "hall",
          "type": "address"
        }
      ],
      "name": "RegisterHall",
      "type": "event"
    },
    {
      "anonymous": false,
      "inputs": [
        {
          "indexed": false,
          "internalType": "address",
          "name": "account",
          "type": "address"
        }
      ],
      "name": "Unpaused",
      "type": "event"
    },
    {
      "constant": false,
      "inputs": [
        {
          "internalType": "address",
          "name": "account",
          "type": "address"
        }
      ],
      "name": "addPauser",
      "outputs": [],
      "payable": false,
      "stateMutability": "nonpayable",
      "type": "function"
    },
    {
      "constant": true,
      "inputs": [
        {
          "internalType": "address",
          "name": "",
          "type": "address"
        }
      ],
      "name": "hallMapping",
      "outputs": [
        {
          "internalType": "bool",
          "name": "",
          "type": "bool"
        }
      ],
      "payable": false,
      "stateMutability": "view",
      "type": "function"
    },
    {
      "constant": true,
      "inputs": [
        {
          "internalType": "address",
          "name": "",
          "type": "address"
        },
        {
          "internalType": "uint256",
          "name": "",
          "type": "uint256"
        }
      ],
      "name": "hallMovieCollectionMapping",
      "outputs": [
        {
          "internalType": "uint256",
          "name": "movieID",
          "type": "uint256"
        },
        {
          "internalType": "address",
          "name": "hall",
          "type": "address"
        },
        {
          "internalType": "string",
          "name": "movieName",
          "type": "string"
        },
        {
          "internalType": "string",
          "name": "movieIMDB",
          "type": "string"
        },
        {
          "internalType": "string",
          "name": "trailer",
          "type": "string"
        },
        {
          "internalType": "enum MoviesBlockbusterEvents.Format",
          "name": "format",
          "type": "uint8"
        },
        {
          "internalType": "uint256",
          "name": "time",
          "type": "uint256"
        },
        {
          "internalType": "uint256",
          "name": "seatsLeft",
          "type": "uint256"
        },
        {
          "internalType": "uint256",
          "name": "price",
          "type": "uint256"
        },
        {
          "internalType": "bool",
          "name": "active",
          "type": "bool"
        },
        {
          "internalType": "bool",
          "name": "cancellation",
          "type": "bool"
        }
      ],
      "payable": false,
      "stateMutability": "view",
      "type": "function"
    },
    {
      "constant": true,
      "inputs": [
        {
          "internalType": "address",
          "name": "",
          "type": "address"
        }
      ],
      "name": "hallMovieCountMapping",
      "outputs": [
        {
          "internalType": "uint256",
          "name": "",
          "type": "uint256"
        }
      ],
      "payable": false,
      "stateMutability": "view",
      "type": "function"
    },
    {
      "constant": true,
      "inputs": [
        {
          "internalType": "address",
          "name": "account",
          "type": "address"
        }
      ],
      "name": "isPauser",
      "outputs": [
        {
          "internalType": "bool",
          "name": "",
          "type": "bool"
        }
      ],
      "payable": false,
      "stateMutability": "view",
      "type": "function"
    },
    {
      "constant": true,
      "inputs": [],
      "name": "owner",
      "outputs": [
        {
          "internalType": "address payable",
          "name": "",
          "type": "address"
        }
      ],
      "payable": false,
      "stateMutability": "view",
      "type": "function"
    },
    {
      "constant": false,
      "inputs": [],
      "name": "pause",
      "outputs": [],
      "payable": false,
      "stateMutability": "nonpayable",
      "type": "function"
    },
    {
      "constant": true,
      "inputs": [],
      "name": "paused",
      "outputs": [
        {
          "internalType": "bool",
          "name": "",
          "type": "bool"
        }
      ],
      "payable": false,
      "stateMutability": "view",
      "type": "function"
    },
    {
      "constant": false,
      "inputs": [],
      "name": "renouncePauser",
      "outputs": [],
      "payable": false,
      "stateMutability": "nonpayable",
      "type": "function"
    },
    {
      "constant": true,
      "inputs": [
        {
          "internalType": "address",
          "name": "",
          "type": "address"
        }
      ],
      "name": "totalRevenue",
      "outputs": [
        {
          "internalType": "uint256",
          "name": "",
          "type": "uint256"
        }
      ],
      "payable": false,
      "stateMutability": "view",
      "type": "function"
    },
    {
      "constant": false,
      "inputs": [],
      "name": "unpause",
      "outputs": [],
      "payable": false,
      "stateMutability": "nonpayable",
      "type": "function"
    },
    {
      "constant": false,
      "inputs": [
        {
          "internalType": "address",
          "name": "_hall",
          "type": "address"
        }
      ],
      "name": "registerHall",
      "outputs": [],
      "payable": false,
      "stateMutability": "nonpayable",
      "type": "function"
    },
    {
      "constant": false,
      "inputs": [
        {
          "internalType": "address",
          "name": "_hall",
          "type": "address"
        }
      ],
      "name": "unregisterHall",
      "outputs": [],
      "payable": false,
      "stateMutability": "nonpayable",
      "type": "function"
    },
    {
      "constant": false,
      "inputs": [
        {
          "internalType": "string",
          "name": "_movieName",
          "type": "string"
        },
        {
          "internalType": "string",
          "name": "_movieIMDB",
          "type": "string"
        },
        {
          "internalType": "string",
          "name": "_trailer",
          "type": "string"
        },
        {
          "internalType": "uint256",
          "name": "_format",
          "type": "uint256"
        },
        {
          "internalType": "uint256",
          "name": "_time",
          "type": "uint256"
        },
        {
          "internalType": "uint256",
          "name": "_totalSeats",
          "type": "uint256"
        },
        {
          "internalType": "uint256",
          "name": "_price",
          "type": "uint256"
        },
        {
          "internalType": "bool",
          "name": "_cancellation",
          "type": "bool"
        }
      ],
      "name": "addMovie",
      "outputs": [],
      "payable": false,
      "stateMutability": "nonpayable",
      "type": "function"
    },
    {
      "constant": false,
      "inputs": [
        {
          "internalType": "uint256",
          "name": "_movieID",
          "type": "uint256"
        }
      ],
      "name": "stopBooking",
      "outputs": [],
      "payable": false,
      "stateMutability": "nonpayable",
      "type": "function"
    },
    {
      "constant": false,
      "inputs": [
        {
          "internalType": "uint256",
          "name": "_movieID",
          "type": "uint256"
        }
      ],
      "name": "startBooking",
      "outputs": [],
      "payable": false,
      "stateMutability": "nonpayable",
      "type": "function"
    },
    {
      "constant": false,
      "inputs": [
        {
          "internalType": "uint256",
          "name": "_movieID",
          "type": "uint256"
        },
        {
          "internalType": "uint256",
          "name": "_tickets",
          "type": "uint256"
        }
      ],
      "name": "setSeats",
      "outputs": [],
      "payable": false,
      "stateMutability": "nonpayable",
      "type": "function"
    },
    {
      "constant": true,
      "inputs": [
        {
          "internalType": "uint256",
          "name": "_movieID",
          "type": "uint256"
        },
        {
          "internalType": "address",
          "name": "_viewer",
          "type": "address"
        }
      ],
      "name": "verifyViewerByHall",
      "outputs": [
        {
          "internalType": "uint256",
          "name": "",
          "type": "uint256"
        }
      ],
      "payable": false,
      "stateMutability": "view",
      "type": "function"
    },
    {
      "constant": true,
      "inputs": [],
      "name": "earning",
      "outputs": [
        {
          "internalType": "uint256",
          "name": "",
          "type": "uint256"
        }
      ],
      "payable": false,
      "stateMutability": "view",
      "type": "function"
    },
    {
      "constant": false,
      "inputs": [],
      "name": "withdraw",
      "outputs": [],
      "payable": false,
      "stateMutability": "nonpayable",
      "type": "function"
    },
    {
      "constant": false,
      "inputs": [
        {
          "internalType": "address",
          "name": "_hall",
          "type": "address"
        },
        {
          "internalType": "uint256",
          "name": "_movieID",
          "type": "uint256"
        },
        {
          "internalType": "uint256",
          "name": "_tickets",
          "type": "uint256"
        }
      ],
      "name": "buyTicket",
      "outputs": [],
      "payable": true,
      "stateMutability": "payable",
      "type": "function"
    },
    {
      "constant": true,
      "inputs": [
        {
          "internalType": "address",
          "name": "_hall",
          "type": "address"
        },
        {
          "internalType": "uint256",
          "name": "_movieID",
          "type": "uint256"
        }
      ],
      "name": "verifyViewer",
      "outputs": [
        {
          "internalType": "uint256",
          "name": "",
          "type": "uint256"
        }
      ],
      "payable": false,
      "stateMutability": "view",
      "type": "function"
    },
    {
      "constant": false,
      "inputs": [
        {
          "internalType": "address",
          "name": "_hall",
          "type": "address"
        },
        {
          "internalType": "uint256",
          "name": "_movieID",
          "type": "uint256"
        }
      ],
      "name": "reqRefund",
      "outputs": [],
      "payable": false,
      "stateMutability": "nonpayable",
      "type": "function"
    }
  ],
  "bytecode": "0x60806040523480156200001157600080fd5b5062000038620000296001600160e01b036200005416565b6001600160e01b036200005816565b600180546001600160a81b0319166101003302179055620001d4565b3390565b62000073816000620000aa60201b6200195b1790919060201c565b6040516001600160a01b038216907f6719d08c1888103bea251a4ed56406bd0c3e69723c8a1686e017e7bbe159b6f890600090a250565b620000bf82826001600160e01b036200015116565b156200012c57604080517f08c379a000000000000000000000000000000000000000000000000000000000815260206004820152601f60248201527f526f6c65733a206163636f756e7420616c72656164792068617320726f6c6500604482015290519081900360640190fd5b6001600160a01b0316600090815260209190915260409020805460ff19166001179055565b60006001600160a01b038216620001b4576040517f08c379a000000000000000000000000000000000000000000000000000000000815260040180806020018281038252602281526020018062001db86022913960400191505060405180910390fd5b506001600160a01b03166000908152602091909152604090205460ff1690565b611bd480620001e46000396000f3fe6080604052600436106101405760003560e01c80637a4d3111116100b6578063a90a18611161006f578063a90a1861146105d3578063c09a3d7514610603578063cd3bf75c146107de578063df78abe614610811578063e3e5c2b914610826578063e79208151461085857610140565b80637a4d3111146104bb57806382dc1ec4146104ee57806383535008146105215780638456cb59146105545780638da5cb5b146105695780639f1498dd1461059a57610140565b80634218f184116101085780634218f184146103ba57806346fbf68e146103ed5780635c975abb1461043457806365b71368146104495780636ef8d66d1461047c5780636f519c461461049157610140565b806326759cfd146101455780632c46168a1461031957806333143bda146103645780633ccfd60b146103905780633f4ba83a146103a5575b600080fd5b34801561015157600080fd5b5061017e6004803603604081101561016857600080fd5b506001600160a01b038135169060200135610891565b604080518c81526001600160a01b038c166020820152908101606082016080830160a084018a60018111156101af57fe5b60ff168152602001898152602001888152602001878152602001861515151581526020018515151515815260200184810384528d818151815260200191508051906020019080838360005b838110156102125781810151838201526020016101fa565b50505050905090810190601f16801561023f5780820380516001836020036101000a031916815260200191505b5084810383528c5181528c516020918201918e019080838360005b8381101561027257818101518382015260200161025a565b50505050905090810190601f16801561029f5780820380516001836020036101000a031916815260200191505b5084810382528b5181528b516020918201918d019080838360005b838110156102d25781810151838201526020016102ba565b50505050905090810190601f1680156102ff5780820380516001836020036101000a031916815260200191505b509e50505050505050505050505050505060405180910390f35b34801561032557600080fd5b506103526004803603604081101561033c57600080fd5b506001600160a01b038135169060200135610a9f565b60408051918252519081900360200190f35b34801561037057600080fd5b5061038e6004803603602081101561038757600080fd5b5035610ad5565b005b34801561039c57600080fd5b5061038e610b1f565b3480156103b157600080fd5b5061038e610bd5565b3480156103c657600080fd5b50610352600480360360208110156103dd57600080fd5b50356001600160a01b0316610cbe565b3480156103f957600080fd5b506104206004803603602081101561041057600080fd5b50356001600160a01b0316610cd0565b604080519115158252519081900360200190f35b34801561044057600080fd5b50610420610ce2565b34801561045557600080fd5b5061038e6004803603602081101561046c57600080fd5b50356001600160a01b0316610cec565b34801561048857600080fd5b5061038e610d63565b34801561049d57600080fd5b5061038e600480360360208110156104b457600080fd5b5035610d75565b3480156104c757600080fd5b50610420600480360360208110156104de57600080fd5b50356001600160a01b0316610dbc565b3480156104fa57600080fd5b5061038e6004803603602081101561051157600080fd5b50356001600160a01b0316610dd1565b34801561052d57600080fd5b506103526004803603602081101561054457600080fd5b50356001600160a01b0316610e23565b34801561056057600080fd5b5061038e610e35565b34801561057557600080fd5b5061057e610efb565b604080516001600160a01b039092168252519081900360200190f35b3480156105a657600080fd5b50610352600480360360408110156105bd57600080fd5b50803590602001356001600160a01b0316610f0f565b3480156105df57600080fd5b5061038e600480360360408110156105f657600080fd5b5080359060200135610f66565b34801561060f57600080fd5b5061038e600480360361010081101561062757600080fd5b81019060208101813564010000000081111561064257600080fd5b82018360208201111561065457600080fd5b8035906020019184600183028401116401000000008311171561067657600080fd5b91908080601f01602080910402602001604051908101604052809392919081815260200183838082843760009201919091525092959493602081019350359150506401000000008111156106c957600080fd5b8201836020820111156106db57600080fd5b803590602001918460018302840111640100000000831117156106fd57600080fd5b91908080601f016020809104026020016040519081016040528093929190818152602001838380828437600092019190915250929594936020810193503591505064010000000081111561075057600080fd5b82018360208201111561076257600080fd5b8035906020019184600183028401116401000000008311171561078457600080fd5b91908080601f01602080910402602001604051908101604052809392919081815260200183838082843760009201919091525092955050823593505050602081013590604081013590606081013590608001351515610fa9565b3480156107ea57600080fd5b5061038e6004803603602081101561080157600080fd5b50356001600160a01b031661132c565b34801561081d57600080fd5b50610352611369565b61038e6004803603606081101561083c57600080fd5b506001600160a01b03813516906020810135906040013561139e565b34801561086457600080fd5b5061038e6004803603604081101561087b57600080fd5b506001600160a01b038135169060200135611570565b600460209081526000928352604080842082529183529181902080546001808301546002808501805487516101009582161595909502600019011691909104601f810188900488028401880190965285835292956001600160a01b0390911694919291908301828280156109465780601f1061091b57610100808354040283529160200191610946565b820191906000526020600020905b81548152906001019060200180831161092957829003601f168201915b5050505060038301805460408051602060026001851615610100026000190190941693909304601f81018490048402820184019092528181529495949350908301828280156109d65780601f106109ab576101008083540402835291602001916109d6565b820191906000526020600020905b8154815290600101906020018083116109b957829003601f168201915b5050505060048301805460408051602060026001851615610100026000190190941693909304601f8101849004840282018401909252818152949594935090830182828015610a665780601f10610a3b57610100808354040283529160200191610a66565b820191906000526020600020905b815481529060010190602001808311610a4957829003601f168201915b5050506005840154600685015460078601546008870154600990970154959660ff9384169692955090935091818116916101009004168b565b6001600160a01b03821660009081526004602090815260408083208484528252808320338452600a019091529020545b92915050565b3360009081526002602052604090205460ff161515600114610af657600080fd5b33600090815260046020908152604080832093835292905220600901805460ff19166001179055565b60015460ff1615610b6a576040805162461bcd60e51b815260206004820152601060248201526f14185d5cd8589b194e881c185d5cd95960821b604482015290519081900360640190fd5b3360009081526002602052604090205460ff161515600114610b8b57600080fd5b3360008181526005602052604080822054905181156108fc0292818181858888f19350505050158015610bc2573d6000803e3d6000fd5b5033600090815260056020526040812055565b610be5610be06116fd565b610cd0565b610c205760405162461bcd60e51b8152600401808060200182810382526030815260200180611b0c6030913960400191505060405180910390fd5b60015460ff16610c6e576040805162461bcd60e51b815260206004820152601460248201527314185d5cd8589b194e881b9bdd081c185d5cd95960621b604482015290519081900360640190fd5b6001805460ff191690557f5db9ee0a495bf2e6ff9c91a7834c1ba4fdd244a5e8aa4e537bd38aeae4b073aa610ca16116fd565b604080516001600160a01b039092168252519081900360200190a1565b60056020526000908152604090205481565b6000610acf818363ffffffff61170116565b60015460ff165b90565b60015461010090046001600160a01b03163314610d0857600080fd5b6001600160a01b038116600081815260026020908152604091829020805460ff19166001179055815192835290517fab1e36a08176cc33d01e126bdd6936182fcd21fb3c638e5a01ff151978dc829d9281900390910190a150565b610d73610d6e6116fd565b611768565b565b3360009081526002602052604090205460ff161515600114610d9657600080fd5b33600090815260046020908152604080832093835292905220600901805460ff19169055565b60026020526000908152604090205460ff1681565b610ddc610be06116fd565b610e175760405162461bcd60e51b8152600401808060200182810382526030815260200180611b0c6030913960400191505060405180910390fd5b610e20816117b0565b50565b60036020526000908152604090205481565b610e40610be06116fd565b610e7b5760405162461bcd60e51b8152600401808060200182810382526030815260200180611b0c6030913960400191505060405180910390fd5b60015460ff1615610ec6576040805162461bcd60e51b815260206004820152601060248201526f14185d5cd8589b194e881c185d5cd95960821b604482015290519081900360640190fd5b6001805460ff1916811790557f62e78cea01bee320cd4e420270b5ea74000d11b0c9f74754ebdbfc544b05a258610ca16116fd565b60015461010090046001600160a01b031681565b3360009081526002602052604081205460ff161515600114610f3057600080fd5b5033600090815260046020908152604080832085845282528083206001600160a01b0385168452600a0190915290205492915050565b3360009081526002602052604090205460ff161515600114610f8757600080fd5b3360009081526004602090815260408083209483529390529190912060070155565b60015460ff1615610ff4576040805162461bcd60e51b815260206004820152601060248201526f14185d5cd8589b194e881c185d5cd95960821b604482015290519081900360640190fd5b3360009081526002602052604090205460ff16151560011461101557600080fd5b3360009081526003602052604090205461103690600163ffffffff6117f816565b3360008181526003602090815260408083208590556004825280832085845282529091208381556001810180546001600160a01b0319169093179092558a51611087916002840191908d0190611a73565b50885161109d90600383019060208c0190611a73565b5087516110b390600483019060208b0190611a73565b508660018111156110c057fe5b60058201805460ff1916600183818111156110d757fe5b021790555085816006018190555084816007018190555083816008018190555060018160090160006101000a81548160ff021916908315150217905550828160090160016101000a81548160ff0219169083151502179055507fddfcdc668b68089e13dd0a26eaf22bf6780e4f4bac4d98edb40e8e3f50ef5ee781600001548260010160009054906101000a90046001600160a01b031683600201846003018560050160009054906101000a900460ff168660060154876007015488600801548960090160009054906101000a900460ff168a60090160019054906101000a900460ff16604051808b81526020018a6001600160a01b03166001600160a01b0316815260200180602001806020018960018111156111f157fe5b60ff168152602081018990526040810188905260608101879052851515608082015284151560a082015260c0848203810184528c546002600182161561010002600019019091160490820181905260e0909101908c9080156112945780601f1061126957610100808354040283529160200191611294565b820191906000526020600020905b81548152906001019060200180831161127757829003601f168201915b505083810382528a54600260001961010060018416150201909116048082526020909101908b9080156113085780601f106112dd57610100808354040283529160200191611308565b820191906000526020600020905b8154815290600101906020018083116112eb57829003601f168201915b50509c5050505050505050505050505060405180910390a150505050505050505050565b60015461010090046001600160a01b0316331461134857600080fd5b6001600160a01b03166000908152600260205260409020805460ff19169055565b3360009081526002602052604081205460ff16151560011461138a57600080fd5b503360009081526005602052604090205490565b60015460ff16156113e9576040805162461bcd60e51b815260206004820152601060248201526f14185d5cd8589b194e881c185d5cd95960821b604482015290519081900360640190fd5b6001600160a01b03831660009081526004602090815260408083208584529091529020600901548390839060ff16151560011461142557600080fd5b6001600160a01b03851660009081526004602090815260408083208784529091529020600781015484111561145957600080fd5b3481600801548502111561146c57600080fd5b6114ab61148682600801548661185990919063ffffffff16565b6001600160a01b0388166000908152600560205260409020549063ffffffff6117f816565b6001600160a01b03871660009081526005602052604090205560078101546114d9908563ffffffff6118b216565b6007820155336000908152600a82016020526040902054611500908563ffffffff6117f816565b336000818152600a840160209081526040918290209390935580519182526001600160a01b038916928201929092528082018790526060810186905290517f14e9f7e3598bfdb478635015097b3c13de8bb57757b267bcb75e5ea3e3bb60fa9181900360800190a1505050505050565b60015460ff16156115bb576040805162461bcd60e51b815260206004820152601060248201526f14185d5cd8589b194e881c185d5cd95960821b604482015290519081900360640190fd5b6001600160a01b0382166000908152600460209081526040808320848452909152902060068101544261012b19909101116115f557600080fd5b600981015460ff61010090910416151560011461161157600080fd5b336000908152600a820160205260409020548061162d57600080fd5b336000818152600a8401602052604081205560088301546108fc9061165990849063ffffffff61185916565b6040518115909202916000818181858888f19350505050158015611681573d6000803e3d6000fd5b506116c161169c83600801548361185990919063ffffffff16565b6001600160a01b0386166000908152600560205260409020549063ffffffff6118b216565b6001600160a01b03851660009081526005602052604090205560078201546116ef908263ffffffff6117f816565b826007018190555050505050565b3390565b60006001600160a01b0382166117485760405162461bcd60e51b8152600401808060200182810382526022815260200180611b7e6022913960400191505060405180910390fd5b506001600160a01b03166000908152602091909152604090205460ff1690565b61177960008263ffffffff6118f416565b6040516001600160a01b038216907fcd265ebaf09df2871cc7bd4133404a235ba12eff2041bb89d9c714a2621c7c7e90600090a250565b6117c160008263ffffffff61195b16565b6040516001600160a01b038216907f6719d08c1888103bea251a4ed56406bd0c3e69723c8a1686e017e7bbe159b6f890600090a250565b600082820183811015611852576040805162461bcd60e51b815260206004820152601b60248201527f536166654d6174683a206164646974696f6e206f766572666c6f770000000000604482015290519081900360640190fd5b9392505050565b60008261186857506000610acf565b8282028284828161187557fe5b04146118525760405162461bcd60e51b8152600401808060200182810382526021815260200180611b5d6021913960400191505060405180910390fd5b600061185283836040518060400160405280601e81526020017f536166654d6174683a207375627472616374696f6e206f766572666c6f7700008152506119dc565b6118fe8282611701565b6119395760405162461bcd60e51b8152600401808060200182810382526021815260200180611b3c6021913960400191505060405180910390fd5b6001600160a01b0316600090815260209190915260409020805460ff19169055565b6119658282611701565b156119b7576040805162461bcd60e51b815260206004820152601f60248201527f526f6c65733a206163636f756e7420616c72656164792068617320726f6c6500604482015290519081900360640190fd5b6001600160a01b0316600090815260209190915260409020805460ff19166001179055565b60008184841115611a6b5760405162461bcd60e51b81526004018080602001828103825283818151815260200191508051906020019080838360005b83811015611a30578181015183820152602001611a18565b50505050905090810190601f168015611a5d5780820380516001836020036101000a031916815260200191505b509250505060405180910390fd5b505050900390565b828054600181600116156101000203166002900490600052602060002090601f016020900481019282601f10611ab457805160ff1916838001178555611ae1565b82800160010185558215611ae1579182015b82811115611ae1578251825591602001919060010190611ac6565b50611aed929150611af1565b5090565b610ce991905b80821115611aed5760008155600101611af756fe506175736572526f6c653a2063616c6c657220646f6573206e6f742068617665207468652050617573657220726f6c65526f6c65733a206163636f756e7420646f6573206e6f74206861766520726f6c65536166654d6174683a206d756c7469706c69636174696f6e206f766572666c6f77526f6c65733a206163636f756e7420697320746865207a65726f2061646472657373a265627a7a723158200bc462714ab14f1b2111bdf0981751f5e4bcd7916f3d43bb821880190a01c33f64736f6c634300050c0032526f6c65733a206163636f756e7420697320746865207a65726f2061646472657373",
  "source": "pragma solidity ^0.5.0;\n\n\n/// @title This a contract for Hosting Movies on Blockchain for theaters\n/// @author Sarang Parikh <sarangparikh22@gmail.com><www.github.com/sarangparikh22>\n/// @notice The contract was created specially for the Consensys Developer Bootcamp \n/// @dev All the functions here are safely implemented with TDD\n\nimport \"./SafeMath.sol\";\nimport \"./Pausable.sol\";\n\ncontract MoviesBlockbusterEvents is Pausable{\n\n    // State Variables\n    using SafeMath for uint;\n    address payable public owner;\n    enum Format {TWOD, THREED}\n    \n    \n    // Events\n    event RegisterHall(address hall);\n    event AddMovie(uint movieID, address hall, string movieName, string movieIMDB, Format format, uint time, uint seatsLeft, uint price, bool active, bool cancellation);\n    event BuyTicket(address buyer, address hall, uint movieID, uint tickets);\n    \n    // Mappings\n    mapping(address =>  bool) public hallMapping;\n    mapping(address => uint) public hallMovieCountMapping;\n    mapping(address => mapping(uint  => Movie)) public hallMovieCollectionMapping;\n    mapping(address => uint) public totalRevenue;\n\n    \n    // Structures\n    struct Movie{\n        uint movieID;\n        address hall;\n        string movieName;\n        string movieIMDB;\n        string trailer;\n        Format format;\n        uint time;\n        uint seatsLeft;\n        uint price;\n        bool active;\n        bool cancellation;\n        mapping(address => uint) viewers;\n    }\n    \n    // Modifiers\n    modifier onlyOwner{\n        require(msg.sender == owner);\n        _;\n    }\n    modifier onlyRegisteredHalls {\n        require(hallMapping[msg.sender] == true);\n        _;\n    }\n    \n    modifier isActive(address _hall, uint _movieID) {\n        require(hallMovieCollectionMapping[_hall][_movieID].active == true);\n        _;\n    }\n    \n    // Constructor\n    constructor() public {\n        owner = msg.sender;\n    }\n    \n    // Platform Functions - Only Owner can Execute these\n\n    /// @notice Registration of Hall\n    /// @dev It can be only called by the owner of the Contract\n    /// @param _hall  Address of the Hall\n    function registerHall(address _hall) public onlyOwner{\n        hallMapping[_hall] = true;\n        emit RegisterHall(_hall);\n    }\n    \n    /// @notice Unegistration of Hall\n    /// @dev It can be only called by the owner of the Contract\n    /// @param _hall  Address of the Hall\n    function unregisterHall(address _hall) public onlyOwner{\n        hallMapping[_hall]  = false;\n    }\n    \n    // Hall Functions - Only Registered Hall can perform this\n\n    /// @notice Adds Movie into the List\n    /// @dev It can be only called by the Registered Halls.\n    /// @param _movieName Name of the Movie\n    /// @param _movieIMDB IMDB ID of the Movie for getting data\n    /// @param _trailer Link of the Trailer of the Movie\n    /// @param _format 0 for 2D and 1 for 3D\n    /// @param _time Date and Time of the Movie in epoch format\n    /// @param _totalSeats Total no. of Seats Allocated\n    /// @param _price Price per Ticket\n    /// @param _cancellation True for allow refund and False for not allow refund\n    function addMovie(string memory _movieName, string memory _movieIMDB, string memory _trailer, uint _format, uint _time, uint _totalSeats, uint _price, bool _cancellation) public whenNotPaused onlyRegisteredHalls{\n        hallMovieCountMapping[msg.sender] = hallMovieCountMapping[msg.sender].add(1);\n        uint movieID = hallMovieCountMapping[msg.sender];\n        Movie storage m = hallMovieCollectionMapping[msg.sender][movieID];\n        m.movieID = movieID;\n        m.hall = msg.sender;\n        m.movieName = _movieName;\n        m.movieIMDB = _movieIMDB;\n        m.trailer = _trailer;\n        m.format = Format(_format);\n        m.time = _time;\n        m.seatsLeft = _totalSeats;\n        m.price = _price;\n        m.active = true;\n        m.cancellation = _cancellation;\n        emit AddMovie(m.movieID, m.hall, m.movieName, m.movieIMDB, m.format, m.time, m.seatsLeft, m.price, m.active, m.cancellation);\n    }\n\n    /// @notice Halt booking for Movie\n    /// @dev It can be only called by the Registered Halls.\n    /// @param _movieID Movie ID by the Particular Hall\n    function stopBooking(uint _movieID) public onlyRegisteredHalls {\n        Movie storage m = hallMovieCollectionMapping[msg.sender][_movieID];\n        m.active = false;\n    }\n    /// @notice Resume booking for Movie\n    /// @dev It can be only called by the Registered Halls.\n    /// @param _movieID Movie ID by the Particular Hall\n    function startBooking(uint _movieID) public onlyRegisteredHalls {\n        Movie storage m = hallMovieCollectionMapping[msg.sender][_movieID];\n        m.active = true;\n    }\n\n    /// @notice Increase or Decrease the Seat quota\n    /// @dev It can be only called by the Registered Halls.\n    /// @param _movieID Movie ID by the Particular Hall\n    /// @param _tickets No. of Tickets to be set\n    function setSeats(uint _movieID, uint _tickets) public onlyRegisteredHalls {\n        Movie storage m = hallMovieCollectionMapping[msg.sender][_movieID];\n        m.seatsLeft = _tickets;\n    }\n    /// @notice Verify Viewer by the Theater Authorities\n    /// @dev It can be only called by the Registered Halls.\n    /// @param _movieID Movie ID by the Particular Hall\n    /// @param _viewer Address of the Viewer to be verified\n    /// @return number of tickets owned by the viewer\n    function verifyViewerByHall(uint _movieID, address _viewer) public view onlyRegisteredHalls returns(uint){\n        Movie storage m = hallMovieCollectionMapping[msg.sender][_movieID];\n        return m.viewers[_viewer];\n    }\n    /// @notice Get Earning of the Hall from Bought Tickets\n    /// @dev It can be only called by the Registered Halls.\n    /// @return Total income they received\n    function earning() public view onlyRegisteredHalls returns(uint) {\n        return totalRevenue[msg.sender];\n    }\n    /// @notice Withdraw Money by the Hall\n    /// @dev It can be only called by the Registered Halls.\n    function withdraw() public whenNotPaused onlyRegisteredHalls {\n        msg.sender.transfer(totalRevenue[msg.sender]);\n        totalRevenue[msg.sender] = 0;\n    }\n    \n    // User Functions - This can be called by anyone\n\n    /// @notice Buy Ticket for the Movie\n    /// @dev The contract should not be paused and Movie should be Active\n    /// @param _hall Address of the Movie Hall\n    /// @param _movieID Movie ID by the Particular Hall\n    /// @param _tickets Number of tickets to be purchased\n    function buyTicket(address _hall, uint _movieID, uint _tickets) public payable whenNotPaused isActive(_hall,_movieID) {\n        Movie storage m = hallMovieCollectionMapping[_hall][_movieID];\n        require(_tickets <= m.seatsLeft);\n        require(_tickets * m.price <= msg.value);\n        totalRevenue[_hall] = totalRevenue[_hall].add(_tickets.mul(m.price));\n        m.seatsLeft = m.seatsLeft.sub(_tickets);\n        m.viewers[msg.sender] = m.viewers[msg.sender].add(_tickets);\n        emit BuyTicket(msg.sender, _hall, _movieID, _tickets);\n    }\n    \n    /// @notice User Verify their Booking\n    /// @dev It can be only called by any user.\n    /// @param _hall Address of the Movie Hall\n    /// @param _movieID Movie ID by the Particular Hall\n    /// @return No. of Tickets the hold\n    function verifyViewer(address _hall, uint _movieID) public view returns(uint){\n        Movie storage m = hallMovieCollectionMapping[_hall][_movieID];\n        return m.viewers[msg.sender];\n    }\n    \n    /// @notice Request Refund\n    /// @dev It can be called when contract is not Paused and within Cancellation Period of 5 Mins. Cancellation should also be available for the Movie\n    /// @param _hall Address of the Movie Hall\n    /// @param _movieID Movie ID by the Particular Hall\n    function reqRefund(address _hall, uint _movieID) public whenNotPaused {\n        Movie storage m = hallMovieCollectionMapping[_hall][_movieID];\n        require(m.time - 5 minutes > now);\n        require(m.cancellation == true);\n        uint tickets = m.viewers[msg.sender];\n        require(tickets > 0);\n        m.viewers[msg.sender] = 0;\n        msg.sender.transfer(tickets.mul(m.price));\n        totalRevenue[_hall] =  totalRevenue[_hall].sub(tickets.mul(m.price));\n        m.seatsLeft = m.seatsLeft.add(tickets);\n    }\n    \n}\n",
  "sourcePath": "/home/saru/Blockchain/Final-Project/blockbuster-events/contracts/MoviesBlockbusterEvents.sol",
  "compiler": {
    "name": "solc",
    "version": "0.5.12+commit.7709ece9.Emscripten.clang"
  },
  "schemaVersion": "3.0.20",
  "updatedAt": "2020-02-02T12:30:49.865Z",
  "networkType": "ethereum",
  "devdoc": {
    "methods": {
      "addMovie(string,string,string,uint256,uint256,uint256,uint256,bool)": {
        "details": "It can be only called by the Registered Halls.",
        "params": {
          "_cancellation": "True for allow refund and False for not allow refund",
          "_format": "0 for 2D and 1 for 3D",
          "_movieIMDB": "IMDB ID of the Movie for getting data",
          "_movieName": "Name of the Movie",
          "_price": "Price per Ticket",
          "_time": "Date and Time of the Movie in epoch format",
          "_totalSeats": "Total no. of Seats Allocated",
          "_trailer": "Link of the Trailer of the Movie"
        }
      },
      "buyTicket(address,uint256,uint256)": {
        "details": "The contract should not be paused and Movie should be Active",
        "params": {
          "_hall": "Address of the Movie Hall",
          "_movieID": "Movie ID by the Particular Hall",
          "_tickets": "Number of tickets to be purchased"
        }
      },
      "earning()": {
        "details": "It can be only called by the Registered Halls.",
        "return": "Total income they received"
      },
      "pause()": {
        "details": "Called by a pauser to pause, triggers stopped state."
      },
      "paused()": {
        "details": "Returns true if the contract is paused, and false otherwise."
      },
      "registerHall(address)": {
        "details": "It can be only called by the owner of the Contract",
        "params": {
          "_hall": "Address of the Hall"
        }
      },
      "reqRefund(address,uint256)": {
        "details": "It can be called when contract is not Paused and within Cancellation Period of 5 Mins. Cancellation should also be available for the Movie",
        "params": {
          "_hall": "Address of the Movie Hall",
          "_movieID": "Movie ID by the Particular Hall"
        }
      },
      "setSeats(uint256,uint256)": {
        "details": "It can be only called by the Registered Halls.",
        "params": {
          "_movieID": "Movie ID by the Particular Hall",
          "_tickets": "No. of Tickets to be set"
        }
      },
      "startBooking(uint256)": {
        "details": "It can be only called by the Registered Halls.",
        "params": {
          "_movieID": "Movie ID by the Particular Hall"
        }
      },
      "stopBooking(uint256)": {
        "details": "It can be only called by the Registered Halls.",
        "params": {
          "_movieID": "Movie ID by the Particular Hall"
        }
      },
      "unpause()": {
        "details": "Called by a pauser to unpause, returns to normal state."
      },
      "unregisterHall(address)": {
        "details": "It can be only called by the owner of the Contract",
        "params": {
          "_hall": "Address of the Hall"
        }
      },
      "verifyViewer(address,uint256)": {
        "details": "It can be only called by any user.",
        "params": {
          "_hall": "Address of the Movie Hall",
          "_movieID": "Movie ID by the Particular Hall"
        },
        "return": "No. of Tickets the hold"
      },
      "verifyViewerByHall(uint256,address)": {
        "details": "It can be only called by the Registered Halls.",
        "params": {
          "_movieID": "Movie ID by the Particular Hall",
          "_viewer": "Address of the Viewer to be verified"
        },
        "return": "number of tickets owned by the viewer"
      },
      "withdraw()": {
        "details": "It can be only called by the Registered Halls."
      }
    }
  },
  "userdoc": {
    "methods": {
      "addMovie(string,string,string,uint256,uint256,uint256,uint256,bool)": {
        "notice": "Adds Movie into the List"
      },
      "buyTicket(address,uint256,uint256)": {
        "notice": "Buy Ticket for the Movie"
      },
      "earning()": {
        "notice": "Get Earning of the Hall from Bought Tickets"
      },
      "registerHall(address)": {
        "notice": "Registration of Hall"
      },
      "reqRefund(address,uint256)": {
        "notice": "Request Refund"
      },
      "setSeats(uint256,uint256)": {
        "notice": "Increase or Decrease the Seat quota"
      },
      "startBooking(uint256)": {
        "notice": "Resume booking for Movie"
      },
      "stopBooking(uint256)": {
        "notice": "Halt booking for Movie"
      },
      "unregisterHall(address)": {
        "notice": "Unegistration of Hall"
      },
      "verifyViewer(address,uint256)": {
        "notice": "User Verify their Booking"
      },
      "verifyViewerByHall(uint256,address)": {
        "notice": "Verify Viewer by the Theater Authorities"
      },
      "withdraw()": {
        "notice": "Withdraw Money by the Hall"
      }
    }
  }
}