{
  "contractName": "Movies",
  "abi": [
    {
      "inputs": [],
      "payable": false,
      "stateMutability": "nonpayable",
      "type": "constructor"
    },
    {
      "anonymous": false,
      "inputs": [
        {
          "indexed": false,
          "internalType": "uint256",
          "name": "movieID",
          "type": "uint256"
        },
        {
          "indexed": false,
          "internalType": "address",
          "name": "hall",
          "type": "address"
        },
        {
          "indexed": false,
          "internalType": "string",
          "name": "movieName",
          "type": "string"
        },
        {
          "indexed": false,
          "internalType": "enum Movies.Format",
          "name": "format",
          "type": "uint8"
        },
        {
          "indexed": false,
          "internalType": "uint256",
          "name": "time",
          "type": "uint256"
        },
        {
          "indexed": false,
          "internalType": "uint256",
          "name": "seatsLeft",
          "type": "uint256"
        },
        {
          "indexed": false,
          "internalType": "uint256",
          "name": "price",
          "type": "uint256"
        },
        {
          "indexed": false,
          "internalType": "bool",
          "name": "active",
          "type": "bool"
        },
        {
          "indexed": false,
          "internalType": "bool",
          "name": "cancellation",
          "type": "bool"
        }
      ],
      "name": "AddMovie",
      "type": "event"
    },
    {
      "anonymous": false,
      "inputs": [
        {
          "indexed": false,
          "internalType": "address",
          "name": "buyer",
          "type": "address"
        },
        {
          "indexed": false,
          "internalType": "address",
          "name": "hall",
          "type": "address"
        },
        {
          "indexed": false,
          "internalType": "uint256",
          "name": "movieID",
          "type": "uint256"
        },
        {
          "indexed": false,
          "internalType": "uint256",
          "name": "tickets",
          "type": "uint256"
        }
      ],
      "name": "BuyTicket",
      "type": "event"
    },
    {
      "anonymous": false,
      "inputs": [
        {
          "indexed": false,
          "internalType": "address",
          "name": "hall",
          "type": "address"
        }
      ],
      "name": "RegisterHall",
      "type": "event"
    },
    {
      "constant": true,
      "inputs": [
        {
          "internalType": "address",
          "name": "",
          "type": "address"
        }
      ],
      "name": "hallMapping",
      "outputs": [
        {
          "internalType": "bool",
          "name": "",
          "type": "bool"
        }
      ],
      "payable": false,
      "stateMutability": "view",
      "type": "function"
    },
    {
      "constant": true,
      "inputs": [
        {
          "internalType": "address",
          "name": "",
          "type": "address"
        },
        {
          "internalType": "uint256",
          "name": "",
          "type": "uint256"
        }
      ],
      "name": "hallMovieCollectionMapping",
      "outputs": [
        {
          "internalType": "uint256",
          "name": "movieID",
          "type": "uint256"
        },
        {
          "internalType": "address",
          "name": "hall",
          "type": "address"
        },
        {
          "internalType": "string",
          "name": "movieName",
          "type": "string"
        },
        {
          "internalType": "enum Movies.Format",
          "name": "format",
          "type": "uint8"
        },
        {
          "internalType": "uint256",
          "name": "time",
          "type": "uint256"
        },
        {
          "internalType": "uint256",
          "name": "seatsLeft",
          "type": "uint256"
        },
        {
          "internalType": "uint256",
          "name": "price",
          "type": "uint256"
        },
        {
          "internalType": "bool",
          "name": "active",
          "type": "bool"
        },
        {
          "internalType": "bool",
          "name": "cancellation",
          "type": "bool"
        }
      ],
      "payable": false,
      "stateMutability": "view",
      "type": "function"
    },
    {
      "constant": true,
      "inputs": [
        {
          "internalType": "address",
          "name": "",
          "type": "address"
        }
      ],
      "name": "hallMovieCountMapping",
      "outputs": [
        {
          "internalType": "uint256",
          "name": "",
          "type": "uint256"
        }
      ],
      "payable": false,
      "stateMutability": "view",
      "type": "function"
    },
    {
      "constant": true,
      "inputs": [],
      "name": "owner",
      "outputs": [
        {
          "internalType": "address payable",
          "name": "",
          "type": "address"
        }
      ],
      "payable": false,
      "stateMutability": "view",
      "type": "function"
    },
    {
      "constant": true,
      "inputs": [
        {
          "internalType": "address",
          "name": "",
          "type": "address"
        }
      ],
      "name": "totalRevenue",
      "outputs": [
        {
          "internalType": "uint256",
          "name": "",
          "type": "uint256"
        }
      ],
      "payable": false,
      "stateMutability": "view",
      "type": "function"
    },
    {
      "constant": false,
      "inputs": [
        {
          "internalType": "address",
          "name": "_hall",
          "type": "address"
        }
      ],
      "name": "registerHall",
      "outputs": [],
      "payable": false,
      "stateMutability": "nonpayable",
      "type": "function"
    },
    {
      "constant": false,
      "inputs": [
        {
          "internalType": "address",
          "name": "_hall",
          "type": "address"
        }
      ],
      "name": "unregisterHall",
      "outputs": [],
      "payable": false,
      "stateMutability": "nonpayable",
      "type": "function"
    },
    {
      "constant": false,
      "inputs": [
        {
          "internalType": "string",
          "name": "_movieName",
          "type": "string"
        },
        {
          "internalType": "uint256",
          "name": "_format",
          "type": "uint256"
        },
        {
          "internalType": "uint256",
          "name": "_time",
          "type": "uint256"
        },
        {
          "internalType": "uint256",
          "name": "_totalSeats",
          "type": "uint256"
        },
        {
          "internalType": "uint256",
          "name": "_price",
          "type": "uint256"
        },
        {
          "internalType": "bool",
          "name": "_cancellation",
          "type": "bool"
        }
      ],
      "name": "addMovie",
      "outputs": [],
      "payable": false,
      "stateMutability": "nonpayable",
      "type": "function"
    },
    {
      "constant": false,
      "inputs": [
        {
          "internalType": "uint256",
          "name": "_movieID",
          "type": "uint256"
        }
      ],
      "name": "stopBooking",
      "outputs": [],
      "payable": false,
      "stateMutability": "nonpayable",
      "type": "function"
    },
    {
      "constant": false,
      "inputs": [
        {
          "internalType": "uint256",
          "name": "_movieID",
          "type": "uint256"
        }
      ],
      "name": "startBooking",
      "outputs": [],
      "payable": false,
      "stateMutability": "nonpayable",
      "type": "function"
    },
    {
      "constant": false,
      "inputs": [
        {
          "internalType": "uint256",
          "name": "_movieID",
          "type": "uint256"
        },
        {
          "internalType": "uint256",
          "name": "_tickets",
          "type": "uint256"
        }
      ],
      "name": "setSeats",
      "outputs": [],
      "payable": false,
      "stateMutability": "nonpayable",
      "type": "function"
    },
    {
      "constant": true,
      "inputs": [
        {
          "internalType": "uint256",
          "name": "_movieID",
          "type": "uint256"
        },
        {
          "internalType": "address",
          "name": "_viewer",
          "type": "address"
        }
      ],
      "name": "verifyViewerByHall",
      "outputs": [
        {
          "internalType": "uint256",
          "name": "",
          "type": "uint256"
        }
      ],
      "payable": false,
      "stateMutability": "view",
      "type": "function"
    },
    {
      "constant": true,
      "inputs": [],
      "name": "earning",
      "outputs": [
        {
          "internalType": "uint256",
          "name": "",
          "type": "uint256"
        }
      ],
      "payable": false,
      "stateMutability": "view",
      "type": "function"
    },
    {
      "constant": false,
      "inputs": [],
      "name": "withdraw",
      "outputs": [],
      "payable": false,
      "stateMutability": "nonpayable",
      "type": "function"
    },
    {
      "constant": false,
      "inputs": [
        {
          "internalType": "address",
          "name": "_hall",
          "type": "address"
        },
        {
          "internalType": "uint256",
          "name": "_movieID",
          "type": "uint256"
        },
        {
          "internalType": "uint256",
          "name": "_tickets",
          "type": "uint256"
        }
      ],
      "name": "buyTicket",
      "outputs": [],
      "payable": true,
      "stateMutability": "payable",
      "type": "function"
    },
    {
      "constant": true,
      "inputs": [
        {
          "internalType": "address",
          "name": "_hall",
          "type": "address"
        },
        {
          "internalType": "uint256",
          "name": "_movieID",
          "type": "uint256"
        }
      ],
      "name": "verifyViewer",
      "outputs": [
        {
          "internalType": "uint256",
          "name": "",
          "type": "uint256"
        }
      ],
      "payable": false,
      "stateMutability": "view",
      "type": "function"
    },
    {
      "constant": false,
      "inputs": [
        {
          "internalType": "address",
          "name": "_hall",
          "type": "address"
        },
        {
          "internalType": "uint256",
          "name": "_movieID",
          "type": "uint256"
        }
      ],
      "name": "reqRefund",
      "outputs": [],
      "payable": false,
      "stateMutability": "nonpayable",
      "type": "function"
    }
  ],
  "bytecode": "0x608060405234801561001057600080fd5b50600080546001600160a01b03191633179055610ee8806100326000396000f3fe6080604052600436106100fe5760003560e01c80638353500811610095578063bf5a3b3d11610064578063bf5a3b3d1461043b578063cd3bf75c14610507578063df78abe61461053a578063e3e5c2b91461054f578063e792081514610581576100fe565b8063835350081461036e5780638da5cb5b146103a15780639f1498dd146103d2578063a90a18611461040b576100fe565b80634218f184116100d15780634218f1841461029757806365b71368146102ca5780636f519c46146102fd5780637a4d311114610327576100fe565b806326759cfd146101035780632c46168a1461020b57806333143bda146102565780633ccfd60b14610282575b600080fd5b34801561010f57600080fd5b5061013c6004803603604081101561012657600080fd5b506001600160a01b0381351690602001356105ba565b604080518a81526001600160a01b038a1660208201529081016060820188600181111561016557fe5b60ff1681526020018781526020018681526020018581526020018415151515815260200183151515158152602001828103825289818151815260200191508051906020019080838360005b838110156101c85781810151838201526020016101b0565b50505050905090810190601f1680156101f55780820380516001836020036101000a031916815260200191505b509a505050505050505050505060405180910390f35b34801561021757600080fd5b506102446004803603604081101561022e57600080fd5b506001600160a01b0381351690602001356106a8565b60408051918252519081900360200190f35b34801561026257600080fd5b506102806004803603602081101561027957600080fd5b50356106db565b005b34801561028e57600080fd5b50610280610726565b3480156102a357600080fd5b50610244600480360360208110156102ba57600080fd5b50356001600160a01b0316610792565b3480156102d657600080fd5b50610280600480360360208110156102ed57600080fd5b50356001600160a01b03166107a4565b34801561030957600080fd5b506102806004803603602081101561032057600080fd5b5035610817565b34801561033357600080fd5b5061035a6004803603602081101561034a57600080fd5b50356001600160a01b031661085f565b604080519115158252519081900360200190f35b34801561037a57600080fd5b506102446004803603602081101561039157600080fd5b50356001600160a01b0316610874565b3480156103ad57600080fd5b506103b6610886565b604080516001600160a01b039092168252519081900360200190f35b3480156103de57600080fd5b50610244600480360360408110156103f557600080fd5b50803590602001356001600160a01b0316610895565b34801561041757600080fd5b506102806004803603604081101561042e57600080fd5b50803590602001356108ec565b34801561044757600080fd5b50610280600480360360c081101561045e57600080fd5b81019060208101813564010000000081111561047957600080fd5b82018360208201111561048b57600080fd5b803590602001918460018302840111640100000000831117156104ad57600080fd5b91908080601f01602080910402602001604051908101604052809392919081815260200183838082843760009201919091525092955050823593505050602081013590604081013590606081013590608001351515610930565b34801561051357600080fd5b506102806004803603602081101561052a57600080fd5b50356001600160a01b0316610ba4565b34801561054657600080fd5b50610244610bdc565b6102806004803603606081101561056557600080fd5b506001600160a01b038135169060208101359060400135610c12565b34801561058d57600080fd5b50610280600480360360408110156105a457600080fd5b506001600160a01b038135169060200135610d2c565b600360209081526000928352604080842082529183529181902080546001808301546002808501805487516101009582161595909502600019011691909104601f810188900488028401880190965285835292956001600160a01b03909116949192919083018282801561066f5780601f106106445761010080835404028352916020019161066f565b820191906000526020600020905b81548152906001019060200180831161065257829003601f168201915b5050506003840154600485015460058601546006870154600790970154959660ff93841696929550909350918181169161010090041689565b6001600160a01b039190911660009081526003602090815260408083209383529281528282203383526008019052205490565b3360009081526001602081905260409091205460ff161515146106fd57600080fd5b33600090815260036020908152604080832093835292905220600701805460ff19166001179055565b3360009081526001602081905260409091205460ff1615151461074857600080fd5b3360008181526004602052604080822054905181156108fc0292818181858888f1935050505015801561077f573d6000803e3d6000fd5b5033600090815260046020526040812055565b60046020526000908152604090205481565b6000546001600160a01b031633146107bb57600080fd5b6001600160a01b038116600081815260016020818152604092839020805460ff1916909217909155815192835290517fab1e36a08176cc33d01e126bdd6936182fcd21fb3c638e5a01ff151978dc829d9281900390910190a150565b3360009081526001602081905260409091205460ff1615151461083957600080fd5b33600090815260036020908152604080832093835292905220600701805460ff19169055565b60016020526000908152604090205460ff1681565b60026020526000908152604090205481565b6000546001600160a01b031681565b33600090815260016020819052604082205460ff161515146108b657600080fd5b5033600090815260036020908152604080832085845282528083206001600160a01b038516845260080190915290205492915050565b3360009081526001602081905260409091205460ff1615151461090e57600080fd5b3360009081526003602090815260408083209483529390529190912060050155565b3360009081526001602081905260409091205460ff1615151461095257600080fd5b33600081815260026020818152604080842080546001908101918290556003845282862082875284529190942084815590810180546001600160a01b03191690951790945589519293926109ab928401918b0190610e1b565b508660018111156109b857fe5b60038201805460ff1916600183818111156109cf57fe5b021790555085816004018190555084816005018190555083816006018190555060018160070160006101000a81548160ff021916908315150217905550828160070160016101000a81548160ff0219169083151502179055507f9f59d8a1819e46c2d5babe664726fc21d42326090bf2a9bd62ab8e40249c7f1b81600001548260010160009054906101000a90046001600160a01b0316836002018460030160009054906101000a900460ff168560040154866005015487600601548860070160009054906101000a900460ff168960070160019054906101000a900460ff16604051808a8152602001896001600160a01b03166001600160a01b0316815260200180602001886001811115610ae157fe5b60ff168152602081018890526040810187905260608101869052841515608082015283151560a082015260c0838203810183528a546002600182161561010002600019019091160490820181905260e0909101908a908015610b845780601f10610b5957610100808354040283529160200191610b84565b820191906000526020600020905b815481529060010190602001808311610b6757829003601f168201915b50509a505050505050505050505060405180910390a15050505050505050565b6000546001600160a01b03163314610bbb57600080fd5b6001600160a01b03166000908152600160205260409020805460ff19169055565b33600090815260016020819052604082205460ff16151514610bfd57600080fd5b50336000908152600460205260409020545b90565b6001600160a01b03831660009081526003602090815260408083208584529091529020600701548390839060ff161515600114610c4e57600080fd5b6001600160a01b038516600090815260036020908152604080832087845290915290206005810154841115610c8257600080fd5b34816006015485021115610c9557600080fd5b60068101546001600160a01b03871660008181526004602090815260408083208054958a02959095019094556005850180548990039055338083526008860182529184902080548901905583519182528101919091528082018790526060810186905290517f14e9f7e3598bfdb478635015097b3c13de8bb57757b267bcb75e5ea3e3bb60fa9181900360800190a1505050505050565b6001600160a01b0382166000908152600360209081526040808320848452909152902060048101544261012c90910211610d6557600080fd5b600781015460ff610100909104161515600114610d8157600080fd5b33600090815260088201602052604090205480610d9d57600080fd5b3360008181526008840160205260408082208290556006850154905190840280156108fc0292909190818181858888f19350505050158015610de3573d6000803e3d6000fd5b5060068201546001600160a01b0390941660009081526004602052604090208054948202909403909355600501805490920190915550565b828054600181600116156101000203166002900490600052602060002090601f016020900481019282601f10610e5c57805160ff1916838001178555610e89565b82800160010185558215610e89579182015b82811115610e89578251825591602001919060010190610e6e565b50610e95929150610e99565b5090565b610c0f91905b80821115610e955760008155600101610e9f56fea265627a7a72315820b3d44de51cbbdfb864b7db844d2b00a5f47f3fbf4ca0bc5625094de31f93407864736f6c634300050c0032",
  "source": "pragma solidity ^0.5.0;\n\ncontract Movies {\n\n    // State Variables\n    address payable public owner;\n    enum Format {TWOD, THREED}\n    \n    // Events\n    event RegisterHall(address hall);\n    event AddMovie(uint movieID, address hall, string movieName, Format format, uint time, uint seatsLeft, uint price, bool active, bool cancellation);\n    event BuyTicket(address buyer, address hall, uint movieID, uint tickets);\n    \n    // Mappings\n    mapping(address =>  bool) public hallMapping;\n    mapping(address => uint) public hallMovieCountMapping;\n    mapping(address => mapping(uint  => Movie)) public hallMovieCollectionMapping;\n    mapping(address => uint) public totalRevenue;\n\n    \n    // Structures\n    struct Movie{\n        uint movieID;\n        address hall;\n        string movieName;\n        Format format;\n        uint time;\n        uint seatsLeft;\n        uint price;\n        bool active;\n        bool cancellation;\n        mapping(address => uint) viewers;\n    }\n    \n    // Modifiers\n    modifier onlyOwner{\n        require(msg.sender == owner);\n        _;\n    }\n    modifier onlyRegisteredHalls {\n        require(hallMapping[msg.sender] == true);\n        _;\n    }\n    \n    modifier isActive(address _hall, uint _movieID) {\n        require(hallMovieCollectionMapping[_hall][_movieID].active == true);\n        _;\n    }\n    \n    // Constructor\n    constructor() public {\n        owner = msg.sender;\n    }\n    \n    // Platform Functions - Only Owner can Execute these\n    function registerHall(address _hall) public onlyOwner{\n        hallMapping[_hall] = true;\n        emit RegisterHall(_hall);\n    }\n    \n    function unregisterHall(address _hall) public onlyOwner{\n        hallMapping[_hall]  = false;\n    }\n    \n    // Hall Functions - Only Registered Hall can perform this\n    function addMovie(string memory _movieName, uint _format, uint _time, uint _totalSeats, uint _price, bool _cancellation) public onlyRegisteredHalls{\n        hallMovieCountMapping[msg.sender] += 1;\n        uint movieID = hallMovieCountMapping[msg.sender];\n        Movie storage m = hallMovieCollectionMapping[msg.sender][movieID];\n        m.movieID = movieID;\n        m.hall = msg.sender;\n        m.movieName = _movieName;\n        m.format = Format(_format);\n        m.time = _time;\n        m.seatsLeft = _totalSeats;\n        m.price = _price;\n        m.active = true;\n        m.cancellation = _cancellation;\n        emit AddMovie(m.movieID, m.hall, m.movieName, m.format, m.time, m.seatsLeft, m.price, m.active, m.cancellation);\n    }\n    \n    function stopBooking(uint _movieID) public onlyRegisteredHalls {\n        Movie storage m = hallMovieCollectionMapping[msg.sender][_movieID];\n        m.active = false;\n    }\n    \n    function startBooking(uint _movieID) public onlyRegisteredHalls {\n        Movie storage m = hallMovieCollectionMapping[msg.sender][_movieID];\n        m.active = true;\n    }\n    \n    function setSeats(uint _movieID, uint _tickets) public onlyRegisteredHalls {\n        Movie storage m = hallMovieCollectionMapping[msg.sender][_movieID];\n        m.seatsLeft = _tickets;\n    }\n    \n    function verifyViewerByHall(uint _movieID, address _viewer) public view onlyRegisteredHalls returns(uint){\n        Movie storage m = hallMovieCollectionMapping[msg.sender][_movieID];\n        return m.viewers[_viewer];\n    }\n    \n    function earning() public view onlyRegisteredHalls returns(uint) {\n        return totalRevenue[msg.sender];\n    }\n    \n    function withdraw() public onlyRegisteredHalls {\n        msg.sender.transfer(totalRevenue[msg.sender]);\n        totalRevenue[msg.sender] = 0;\n    }\n    \n    // User Functions - This can be called by anyone\n    function buyTicket(address _hall, uint _movieID, uint _tickets) public payable isActive(_hall,_movieID) {\n        Movie storage m = hallMovieCollectionMapping[_hall][_movieID];\n        require(_tickets <= m.seatsLeft);\n        require(_tickets * m.price <= msg.value);\n        totalRevenue[_hall] += _tickets * m.price;\n        m.seatsLeft -= _tickets;\n        m.viewers[msg.sender] += _tickets;\n        emit BuyTicket(msg.sender, _hall, _movieID, _tickets);\n    }\n    \n    function verifyViewer(address _hall, uint _movieID) public view returns(uint){\n        Movie storage m = hallMovieCollectionMapping[_hall][_movieID];\n        return m.viewers[msg.sender];\n    }\n    \n    function reqRefund(address _hall, uint _movieID) public {\n        Movie storage m = hallMovieCollectionMapping[_hall][_movieID];\n        require(m.time * 5 minutes > now);\n        require(m.cancellation == true);\n        uint tickets = m.viewers[msg.sender];\n        require(tickets > 0);\n        m.viewers[msg.sender] = 0;\n        msg.sender.transfer(tickets * m.price);\n        totalRevenue[_hall] -= tickets * m.price;\n        m.seatsLeft += tickets;\n    }\n    \n}",
  "sourcePath": "/home/saru/Blockchain/Final-Project/React-Web3/contracts/DataStore.sol",
  "compiler": {
    "name": "solc",
    "version": "0.5.12+commit.7709ece9.Emscripten.clang"
  },
  "schemaVersion": "3.0.20",
  "updatedAt": "2020-01-24T09:47:50.635Z",
  "devdoc": {
    "methods": {}
  },
  "userdoc": {
    "methods": {}
  }
}