{
  "contractName": "MoviesBlockbusterEvents",
  "abi": [
    {
      "inputs": [],
      "payable": false,
      "stateMutability": "nonpayable",
      "type": "constructor"
    },
    {
      "anonymous": false,
      "inputs": [
        {
          "indexed": false,
          "internalType": "uint256",
          "name": "movieID",
          "type": "uint256"
        },
        {
          "indexed": false,
          "internalType": "address",
          "name": "hall",
          "type": "address"
        },
        {
          "indexed": false,
          "internalType": "string",
          "name": "movieName",
          "type": "string"
        },
        {
          "indexed": false,
          "internalType": "string",
          "name": "movieIMDB",
          "type": "string"
        },
        {
          "indexed": false,
          "internalType": "enum MoviesBlockbusterEvents.Format",
          "name": "format",
          "type": "uint8"
        },
        {
          "indexed": false,
          "internalType": "uint256",
          "name": "time",
          "type": "uint256"
        },
        {
          "indexed": false,
          "internalType": "uint256",
          "name": "seatsLeft",
          "type": "uint256"
        },
        {
          "indexed": false,
          "internalType": "uint256",
          "name": "price",
          "type": "uint256"
        },
        {
          "indexed": false,
          "internalType": "bool",
          "name": "active",
          "type": "bool"
        },
        {
          "indexed": false,
          "internalType": "bool",
          "name": "cancellation",
          "type": "bool"
        }
      ],
      "name": "AddMovie",
      "type": "event"
    },
    {
      "anonymous": false,
      "inputs": [
        {
          "indexed": false,
          "internalType": "address",
          "name": "buyer",
          "type": "address"
        },
        {
          "indexed": false,
          "internalType": "address",
          "name": "hall",
          "type": "address"
        },
        {
          "indexed": false,
          "internalType": "uint256",
          "name": "movieID",
          "type": "uint256"
        },
        {
          "indexed": false,
          "internalType": "uint256",
          "name": "tickets",
          "type": "uint256"
        }
      ],
      "name": "BuyTicket",
      "type": "event"
    },
    {
      "anonymous": false,
      "inputs": [
        {
          "indexed": false,
          "internalType": "address",
          "name": "account",
          "type": "address"
        }
      ],
      "name": "Paused",
      "type": "event"
    },
    {
      "anonymous": false,
      "inputs": [
        {
          "indexed": true,
          "internalType": "address",
          "name": "account",
          "type": "address"
        }
      ],
      "name": "PauserAdded",
      "type": "event"
    },
    {
      "anonymous": false,
      "inputs": [
        {
          "indexed": true,
          "internalType": "address",
          "name": "account",
          "type": "address"
        }
      ],
      "name": "PauserRemoved",
      "type": "event"
    },
    {
      "anonymous": false,
      "inputs": [
        {
          "indexed": false,
          "internalType": "address",
          "name": "hall",
          "type": "address"
        }
      ],
      "name": "RegisterHall",
      "type": "event"
    },
    {
      "anonymous": false,
      "inputs": [
        {
          "indexed": false,
          "internalType": "address",
          "name": "account",
          "type": "address"
        }
      ],
      "name": "Unpaused",
      "type": "event"
    },
    {
      "constant": false,
      "inputs": [
        {
          "internalType": "address",
          "name": "account",
          "type": "address"
        }
      ],
      "name": "addPauser",
      "outputs": [],
      "payable": false,
      "stateMutability": "nonpayable",
      "type": "function"
    },
    {
      "constant": true,
      "inputs": [
        {
          "internalType": "address",
          "name": "",
          "type": "address"
        }
      ],
      "name": "hallMapping",
      "outputs": [
        {
          "internalType": "bool",
          "name": "",
          "type": "bool"
        }
      ],
      "payable": false,
      "stateMutability": "view",
      "type": "function"
    },
    {
      "constant": true,
      "inputs": [
        {
          "internalType": "address",
          "name": "",
          "type": "address"
        },
        {
          "internalType": "uint256",
          "name": "",
          "type": "uint256"
        }
      ],
      "name": "hallMovieCollectionMapping",
      "outputs": [
        {
          "internalType": "uint256",
          "name": "movieID",
          "type": "uint256"
        },
        {
          "internalType": "address",
          "name": "hall",
          "type": "address"
        },
        {
          "internalType": "string",
          "name": "movieName",
          "type": "string"
        },
        {
          "internalType": "string",
          "name": "movieIMDB",
          "type": "string"
        },
        {
          "internalType": "string",
          "name": "trailer",
          "type": "string"
        },
        {
          "internalType": "enum MoviesBlockbusterEvents.Format",
          "name": "format",
          "type": "uint8"
        },
        {
          "internalType": "uint256",
          "name": "time",
          "type": "uint256"
        },
        {
          "internalType": "uint256",
          "name": "seatsLeft",
          "type": "uint256"
        },
        {
          "internalType": "uint256",
          "name": "price",
          "type": "uint256"
        },
        {
          "internalType": "bool",
          "name": "active",
          "type": "bool"
        },
        {
          "internalType": "bool",
          "name": "cancellation",
          "type": "bool"
        }
      ],
      "payable": false,
      "stateMutability": "view",
      "type": "function"
    },
    {
      "constant": true,
      "inputs": [
        {
          "internalType": "address",
          "name": "",
          "type": "address"
        }
      ],
      "name": "hallMovieCountMapping",
      "outputs": [
        {
          "internalType": "uint256",
          "name": "",
          "type": "uint256"
        }
      ],
      "payable": false,
      "stateMutability": "view",
      "type": "function"
    },
    {
      "constant": true,
      "inputs": [
        {
          "internalType": "string",
          "name": "message",
          "type": "string"
        }
      ],
      "name": "hash",
      "outputs": [
        {
          "internalType": "bytes32",
          "name": "",
          "type": "bytes32"
        }
      ],
      "payable": false,
      "stateMutability": "pure",
      "type": "function"
    },
    {
      "constant": true,
      "inputs": [
        {
          "internalType": "address",
          "name": "account",
          "type": "address"
        }
      ],
      "name": "isPauser",
      "outputs": [
        {
          "internalType": "bool",
          "name": "",
          "type": "bool"
        }
      ],
      "payable": false,
      "stateMutability": "view",
      "type": "function"
    },
    {
      "constant": true,
      "inputs": [],
      "name": "owner",
      "outputs": [
        {
          "internalType": "address payable",
          "name": "",
          "type": "address"
        }
      ],
      "payable": false,
      "stateMutability": "view",
      "type": "function"
    },
    {
      "constant": false,
      "inputs": [],
      "name": "pause",
      "outputs": [],
      "payable": false,
      "stateMutability": "nonpayable",
      "type": "function"
    },
    {
      "constant": true,
      "inputs": [],
      "name": "paused",
      "outputs": [
        {
          "internalType": "bool",
          "name": "",
          "type": "bool"
        }
      ],
      "payable": false,
      "stateMutability": "view",
      "type": "function"
    },
    {
      "constant": true,
      "inputs": [
        {
          "internalType": "bytes32",
          "name": "hash",
          "type": "bytes32"
        },
        {
          "internalType": "bytes",
          "name": "signature",
          "type": "bytes"
        }
      ],
      "name": "recover",
      "outputs": [
        {
          "internalType": "address",
          "name": "",
          "type": "address"
        }
      ],
      "payable": false,
      "stateMutability": "pure",
      "type": "function"
    },
    {
      "constant": false,
      "inputs": [],
      "name": "renouncePauser",
      "outputs": [],
      "payable": false,
      "stateMutability": "nonpayable",
      "type": "function"
    },
    {
      "constant": true,
      "inputs": [
        {
          "internalType": "string",
          "name": "_a",
          "type": "string"
        },
        {
          "internalType": "string",
          "name": "_b",
          "type": "string"
        },
        {
          "internalType": "string",
          "name": "_c",
          "type": "string"
        },
        {
          "internalType": "string",
          "name": "_d",
          "type": "string"
        }
      ],
      "name": "strConcat",
      "outputs": [
        {
          "internalType": "string",
          "name": "",
          "type": "string"
        }
      ],
      "payable": false,
      "stateMutability": "pure",
      "type": "function"
    },
    {
      "constant": true,
      "inputs": [
        {
          "internalType": "address",
          "name": "",
          "type": "address"
        }
      ],
      "name": "totalRevenue",
      "outputs": [
        {
          "internalType": "uint256",
          "name": "",
          "type": "uint256"
        }
      ],
      "payable": false,
      "stateMutability": "view",
      "type": "function"
    },
    {
      "constant": true,
      "inputs": [
        {
          "internalType": "uint256",
          "name": "v",
          "type": "uint256"
        }
      ],
      "name": "uintToString",
      "outputs": [
        {
          "internalType": "string",
          "name": "",
          "type": "string"
        }
      ],
      "payable": false,
      "stateMutability": "pure",
      "type": "function"
    },
    {
      "constant": false,
      "inputs": [],
      "name": "unpause",
      "outputs": [],
      "payable": false,
      "stateMutability": "nonpayable",
      "type": "function"
    },
    {
      "constant": false,
      "inputs": [
        {
          "internalType": "address",
          "name": "_hall",
          "type": "address"
        }
      ],
      "name": "registerHall",
      "outputs": [],
      "payable": false,
      "stateMutability": "nonpayable",
      "type": "function"
    },
    {
      "constant": false,
      "inputs": [
        {
          "internalType": "address",
          "name": "_hall",
          "type": "address"
        }
      ],
      "name": "unregisterHall",
      "outputs": [],
      "payable": false,
      "stateMutability": "nonpayable",
      "type": "function"
    },
    {
      "constant": false,
      "inputs": [
        {
          "internalType": "string",
          "name": "_movieName",
          "type": "string"
        },
        {
          "internalType": "string",
          "name": "_movieIMDB",
          "type": "string"
        },
        {
          "internalType": "string",
          "name": "_trailer",
          "type": "string"
        },
        {
          "internalType": "uint256",
          "name": "_format",
          "type": "uint256"
        },
        {
          "internalType": "uint256",
          "name": "_time",
          "type": "uint256"
        },
        {
          "internalType": "uint256",
          "name": "_totalSeats",
          "type": "uint256"
        },
        {
          "internalType": "uint256",
          "name": "_price",
          "type": "uint256"
        },
        {
          "internalType": "bool",
          "name": "_cancellation",
          "type": "bool"
        }
      ],
      "name": "addMovie",
      "outputs": [],
      "payable": false,
      "stateMutability": "nonpayable",
      "type": "function"
    },
    {
      "constant": false,
      "inputs": [
        {
          "internalType": "uint256",
          "name": "_movieID",
          "type": "uint256"
        }
      ],
      "name": "stopBooking",
      "outputs": [],
      "payable": false,
      "stateMutability": "nonpayable",
      "type": "function"
    },
    {
      "constant": false,
      "inputs": [
        {
          "internalType": "uint256",
          "name": "_movieID",
          "type": "uint256"
        }
      ],
      "name": "startBooking",
      "outputs": [],
      "payable": false,
      "stateMutability": "nonpayable",
      "type": "function"
    },
    {
      "constant": true,
      "inputs": [
        {
          "internalType": "address",
          "name": "_addr",
          "type": "address"
        }
      ],
      "name": "toString",
      "outputs": [
        {
          "internalType": "string",
          "name": "",
          "type": "string"
        }
      ],
      "payable": false,
      "stateMutability": "pure",
      "type": "function"
    },
    {
      "constant": false,
      "inputs": [
        {
          "internalType": "uint256",
          "name": "_movieID",
          "type": "uint256"
        },
        {
          "internalType": "uint256",
          "name": "_tickets",
          "type": "uint256"
        }
      ],
      "name": "setSeats",
      "outputs": [],
      "payable": false,
      "stateMutability": "nonpayable",
      "type": "function"
    },
    {
      "constant": true,
      "inputs": [
        {
          "internalType": "uint256",
          "name": "_movieID",
          "type": "uint256"
        },
        {
          "internalType": "address",
          "name": "_viewer",
          "type": "address"
        }
      ],
      "name": "verifyViewerByHall",
      "outputs": [
        {
          "internalType": "uint256",
          "name": "",
          "type": "uint256"
        }
      ],
      "payable": false,
      "stateMutability": "view",
      "type": "function"
    },
    {
      "constant": true,
      "inputs": [],
      "name": "earning",
      "outputs": [
        {
          "internalType": "uint256",
          "name": "",
          "type": "uint256"
        }
      ],
      "payable": false,
      "stateMutability": "view",
      "type": "function"
    },
    {
      "constant": false,
      "inputs": [],
      "name": "withdraw",
      "outputs": [],
      "payable": false,
      "stateMutability": "nonpayable",
      "type": "function"
    },
    {
      "constant": false,
      "inputs": [
        {
          "internalType": "address",
          "name": "_hall",
          "type": "address"
        },
        {
          "internalType": "uint256",
          "name": "_movieID",
          "type": "uint256"
        },
        {
          "internalType": "uint256",
          "name": "_tickets",
          "type": "uint256"
        }
      ],
      "name": "buyTicket",
      "outputs": [],
      "payable": true,
      "stateMutability": "payable",
      "type": "function"
    },
    {
      "constant": false,
      "inputs": [
        {
          "internalType": "bytes",
          "name": "_sig",
          "type": "bytes"
        },
        {
          "internalType": "uint256",
          "name": "_nonce",
          "type": "uint256"
        },
        {
          "internalType": "address",
          "name": "_hall",
          "type": "address"
        },
        {
          "internalType": "uint256",
          "name": "_movieID",
          "type": "uint256"
        },
        {
          "internalType": "uint256",
          "name": "_tickets",
          "type": "uint256"
        }
      ],
      "name": "metaBuyTicket",
      "outputs": [],
      "payable": true,
      "stateMutability": "payable",
      "type": "function"
    },
    {
      "constant": true,
      "inputs": [
        {
          "internalType": "address",
          "name": "_hall",
          "type": "address"
        },
        {
          "internalType": "uint256",
          "name": "_movieID",
          "type": "uint256"
        }
      ],
      "name": "verifyViewer",
      "outputs": [
        {
          "internalType": "uint256",
          "name": "",
          "type": "uint256"
        }
      ],
      "payable": false,
      "stateMutability": "view",
      "type": "function"
    },
    {
      "constant": false,
      "inputs": [
        {
          "internalType": "address",
          "name": "_hall",
          "type": "address"
        },
        {
          "internalType": "uint256",
          "name": "_movieID",
          "type": "uint256"
        }
      ],
      "name": "reqRefund",
      "outputs": [],
      "payable": false,
      "stateMutability": "nonpayable",
      "type": "function"
    }
  ],
  "bytecode": "0x60806040523480156200001157600080fd5b5062000038620000296001600160e01b036200005416565b6001600160e01b036200005816565b600180546001600160a81b0319166101003302179055620001d4565b3390565b62000073816000620000aa60201b620029511790919060201c565b6040516001600160a01b038216907f6719d08c1888103bea251a4ed56406bd0c3e69723c8a1686e017e7bbe159b6f890600090a250565b620000bf82826001600160e01b036200015116565b156200012c57604080517f08c379a000000000000000000000000000000000000000000000000000000000815260206004820152601f60248201527f526f6c65733a206163636f756e7420616c72656164792068617320726f6c6500604482015290519081900360640190fd5b6001600160a01b0316600090815260209190915260409020805460ff19166001179055565b60006001600160a01b038216620001b4576040517f08c379a000000000000000000000000000000000000000000000000000000000815260040180806020018281038252602281526020018062002d176022913960400191505060405180910390fd5b506001600160a01b03166000908152602091909152604090205460ff1690565b612b3380620001e46000396000f3fe6080604052600436106101c15760003560e01c80636f519c46116100f7578063a90a186111610095578063df78abe611610064578063df78abe614610d9b578063e3e5c2b914610db0578063e792081514610de2578063e939567914610e1b576101c1565b8063a90a186114610ab2578063b411ee9414610ae2578063c09a3d7514610b93578063cd3bf75c14610d68576101c1565b806383535008116100d15780638353500814610a1c5780638456cb5914610a4f5780638da5cb5b14610a645780639f1498dd14610a79576101c1565b80636f519c461461098c5780637a4d3111146109b657806382dc1ec4146109e9576101c1565b80634218f1841161016457806356ca623e1161013e57806356ca623e146108fc5780635c975abb1461092f57806365b71368146109445780636ef8d66d14610977576101c1565b80634218f184146105cd57806345e965cd1461060057806346fbf68e146108b5576101c1565b80632c46168a116101a05780632c46168a1461052e57806333143bda146105795780633ccfd60b146105a35780633f4ba83a146105b8576101c1565b80624d6849146101c657806319045a251461028657806326759cfd1461035a575b600080fd5b610284600480360360a08110156101dc57600080fd5b810190602081018135600160201b8111156101f657600080fd5b82018360208201111561020857600080fd5b803590602001918460018302840111600160201b8311171561022957600080fd5b91908080601f0160208091040260200160405190810160405280939291908181526020018383808284376000920191909152509295505082359350506001600160a01b03602083013516916040810135915060600135610e45565b005b34801561029257600080fd5b5061033e600480360360408110156102a957600080fd5b81359190810190604081016020820135600160201b8111156102ca57600080fd5b8201836020820111156102dc57600080fd5b803590602001918460018302840111600160201b831117156102fd57600080fd5b91908080601f016020809104026020016040519081016040528093929190818152602001838380828437600092019190915250929550611084945050505050565b604080516001600160a01b039092168252519081900360200190f35b34801561036657600080fd5b506103936004803603604081101561037d57600080fd5b506001600160a01b038135169060200135611157565b604080518c81526001600160a01b038c166020820152908101606082016080830160a084018a60018111156103c457fe5b60ff168152602001898152602001888152602001878152602001861515151581526020018515151515815260200184810384528d818151815260200191508051906020019080838360005b8381101561042757818101518382015260200161040f565b50505050905090810190601f1680156104545780820380516001836020036101000a031916815260200191505b5084810383528c5181528c516020918201918e019080838360005b8381101561048757818101518382015260200161046f565b50505050905090810190601f1680156104b45780820380516001836020036101000a031916815260200191505b5084810382528b5181528b516020918201918d019080838360005b838110156104e75781810151838201526020016104cf565b50505050905090810190601f1680156105145780820380516001836020036101000a031916815260200191505b509e50505050505050505050505050505060405180910390f35b34801561053a57600080fd5b506105676004803603604081101561055157600080fd5b506001600160a01b038135169060200135611365565b60408051918252519081900360200190f35b34801561058557600080fd5b506102846004803603602081101561059c57600080fd5b5035611398565b3480156105af57600080fd5b506102846113e2565b3480156105c457600080fd5b50610284611498565b3480156105d957600080fd5b50610567600480360360208110156105f057600080fd5b50356001600160a01b0316611581565b34801561060c57600080fd5b506108406004803603608081101561062357600080fd5b810190602081018135600160201b81111561063d57600080fd5b82018360208201111561064f57600080fd5b803590602001918460018302840111600160201b8311171561067057600080fd5b91908080601f0160208091040260200160405190810160405280939291908181526020018383808284376000920191909152509295949360208101935035915050600160201b8111156106c257600080fd5b8201836020820111156106d457600080fd5b803590602001918460018302840111600160201b831117156106f557600080fd5b91908080601f0160208091040260200160405190810160405280939291908181526020018383808284376000920191909152509295949360208101935035915050600160201b81111561074757600080fd5b82018360208201111561075957600080fd5b803590602001918460018302840111600160201b8311171561077a57600080fd5b91908080601f0160208091040260200160405190810160405280939291908181526020018383808284376000920191909152509295949360208101935035915050600160201b8111156107cc57600080fd5b8201836020820111156107de57600080fd5b803590602001918460018302840111600160201b831117156107ff57600080fd5b91908080601f016020809104026020016040519081016040528093929190818152602001838380828437600092019190915250929550611593945050505050565b6040805160208082528351818301528351919283929083019185019080838360005b8381101561087a578181015183820152602001610862565b50505050905090810190601f1680156108a75780820380516001836020036101000a031916815260200191505b509250505060405180910390f35b3480156108c157600080fd5b506108e8600480360360208110156108d857600080fd5b50356001600160a01b0316611748565b604080519115158252519081900360200190f35b34801561090857600080fd5b506108406004803603602081101561091f57600080fd5b50356001600160a01b0316611762565b34801561093b57600080fd5b506108e86118de565b34801561095057600080fd5b506102846004803603602081101561096757600080fd5b50356001600160a01b03166118e8565b34801561098357600080fd5b5061028461195f565b34801561099857600080fd5b50610284600480360360208110156109af57600080fd5b5035611971565b3480156109c257600080fd5b506108e8600480360360208110156109d957600080fd5b50356001600160a01b03166119b8565b3480156109f557600080fd5b5061028460048036036020811015610a0c57600080fd5b50356001600160a01b03166119cd565b348015610a2857600080fd5b5061056760048036036020811015610a3f57600080fd5b50356001600160a01b0316611a1f565b348015610a5b57600080fd5b50610284611a31565b348015610a7057600080fd5b5061033e611af7565b348015610a8557600080fd5b5061056760048036036040811015610a9c57600080fd5b50803590602001356001600160a01b0316611b0b565b348015610abe57600080fd5b5061028460048036036040811015610ad557600080fd5b5080359060200135611b62565b348015610aee57600080fd5b5061056760048036036020811015610b0557600080fd5b810190602081018135600160201b811115610b1f57600080fd5b820183602082011115610b3157600080fd5b803590602001918460018302840111600160201b83111715610b5257600080fd5b91908080601f016020809104026020016040519081016040528093929190818152602001838380828437600092019190915250929550611ba5945050505050565b348015610b9f57600080fd5b506102846004803603610100811015610bb757600080fd5b810190602081018135600160201b811115610bd157600080fd5b820183602082011115610be357600080fd5b803590602001918460018302840111600160201b83111715610c0457600080fd5b91908080601f0160208091040260200160405190810160405280939291908181526020018383808284376000920191909152509295949360208101935035915050600160201b811115610c5657600080fd5b820183602082011115610c6857600080fd5b803590602001918460018302840111600160201b83111715610c8957600080fd5b91908080601f0160208091040260200160405190810160405280939291908181526020018383808284376000920191909152509295949360208101935035915050600160201b811115610cdb57600080fd5b820183602082011115610ced57600080fd5b803590602001918460018302840111600160201b83111715610d0e57600080fd5b91908080601f01602080910402602001604051908101604052809392919081815260200183838082843760009201919091525092955050823593505050602081013590604081013590606081013590608001351515611d2a565b348015610d7457600080fd5b5061028460048036036020811015610d8b57600080fd5b50356001600160a01b03166120ad565b348015610da757600080fd5b506105676120ea565b61028460048036036060811015610dc657600080fd5b506001600160a01b03813516906020810135906040013561211f565b348015610dee57600080fd5b5061028460048036036040811015610e0557600080fd5b506001600160a01b038135169060200135612301565b348015610e2757600080fd5b5061084060048036036020811015610e3e57600080fd5b503561249a565b60015460ff1615610e90576040805162461bcd60e51b815260206004820152601060248201526f14185d5cd8589b194e881c185d5cd95960821b604482015290519081900360640190fd5b6001600160a01b03831660009081526004602090815260408083208584529091529020600901548390839060ff161515600114610ecc57600080fd5b6060610efa610eda8861249a565b610ee388611762565b610eec8861249a565b610ef58861249a565b611593565b90506000610f0782611ba5565b90506000610f15828b611084565b6001600160a01b03891660009081526004602090815260408083208b84529091529020600781015491925090871115610f4d57600080fd5b34610f6582600801548961265c90919063ffffffff16565b1115610f7057600080fd5b610faf610f8a82600801548961265c90919063ffffffff16565b6001600160a01b038b166000908152600560205260409020549063ffffffff6126bc16565b6001600160a01b038a166000908152600560205260409020556007810154610fdd908863ffffffff61271616565b60078201556001600160a01b0382166000908152600a8201602052604090205461100d908863ffffffff6126bc16565b6001600160a01b038084166000818152600a85016020908152604091829020949094558051918252918c16928101929092528181018a905260608201899052517f14e9f7e3598bfdb478635015097b3c13de8bb57757b267bcb75e5ea3e3bb60fa9181900360800190a15050505050505050505050565b600080600080845160411461109f5760009350505050611151565b50505060208201516040830151606084015160001a601b8110156110c157601b015b8060ff16601b141580156110d957508060ff16601c14155b156110ea5760009350505050611151565b6040805160008152602080820180845289905260ff8416828401526060820186905260808201859052915160019260a0808401939192601f1981019281900390910190855afa158015611141573d6000803e3d6000fd5b5050506020604051035193505050505b92915050565b600460209081526000928352604080842082529183529181902080546001808301546002808501805487516101009582161595909502600019011691909104601f810188900488028401880190965285835292956001600160a01b03909116949192919083018282801561120c5780601f106111e15761010080835404028352916020019161120c565b820191906000526020600020905b8154815290600101906020018083116111ef57829003601f168201915b5050505060038301805460408051602060026001851615610100026000190190941693909304601f810184900484028201840190925281815294959493509083018282801561129c5780601f106112715761010080835404028352916020019161129c565b820191906000526020600020905b81548152906001019060200180831161127f57829003601f168201915b5050505060048301805460408051602060026001851615610100026000190190941693909304601f810184900484028201840190925281815294959493509083018282801561132c5780601f106113015761010080835404028352916020019161132c565b820191906000526020600020905b81548152906001019060200180831161130f57829003601f168201915b5050506005840154600685015460078601546008870154600990970154959660ff9384169692955090935091818116916101009004168b565b6001600160a01b03919091166000908152600460209081526040808320938352928152828220338352600a019052205490565b3360009081526002602052604090205460ff1615156001146113b957600080fd5b33600090815260046020908152604080832093835292905220600901805460ff19166001179055565b60015460ff161561142d576040805162461bcd60e51b815260206004820152601060248201526f14185d5cd8589b194e881c185d5cd95960821b604482015290519081900360640190fd5b3360009081526002602052604090205460ff16151560011461144e57600080fd5b3360008181526005602052604080822054905181156108fc0292818181858888f19350505050158015611485573d6000803e3d6000fd5b5033600090815260056020526040812055565b6114a86114a3612758565b611748565b6114e35760405162461bcd60e51b8152600401808060200182810382526030815260200180612a6b6030913960400191505060405180910390fd5b60015460ff16611531576040805162461bcd60e51b815260206004820152601460248201527314185d5cd8589b194e881b9bdd081c185d5cd95960621b604482015290519081900360640190fd5b6001805460ff191690557f5db9ee0a495bf2e6ff9c91a7834c1ba4fdd244a5e8aa4e537bd38aeae4b073aa611564612758565b604080516001600160a01b039092168252519081900360200190a1565b60056020526000908152604090205481565b606080859050606085905060608590506060859050606081518351855187510101016040519080825280601f01601f1916602001820160405280156115df576020820181803883390190505b509050806000805b8751811015611638578781815181106115fc57fe5b602001015160f81c60f81b83838060010194508151811061161957fe5b60200101906001600160f81b031916908160001a9053506001016115e7565b5060005b865181101561168d5786818151811061165157fe5b602001015160f81c60f81b83838060010194508151811061166e57fe5b60200101906001600160f81b031916908160001a90535060010161163c565b5060005b85518110156116e2578581815181106116a657fe5b602001015160f81c60f81b8383806001019450815181106116c357fe5b60200101906001600160f81b031916908160001a905350600101611691565b5060005b8451811015611737578481815181106116fb57fe5b602001015160f81c60f81b83838060010194508151811061171857fe5b60200101906001600160f81b031916908160001a9053506001016116e6565b50909b9a5050505050505050505050565b600061175a818363ffffffff61275c16565b90505b919050565b604080518082018252601081526f181899199a1a9b1b9c1cb0b131b232b360811b60208201528151602a80825260608281019094526001600160a01b03851692918491602082018180388339019050509050600360fc1b816000815181106117c657fe5b60200101906001600160f81b031916908160001a905350600f60fb1b816001815181106117ef57fe5b60200101906001600160f81b031916908160001a90535060005b60148110156118d5578260048583600c016020811061182457fe5b1a60f81b6001600160f81b031916901c60f81c60ff168151811061184457fe5b602001015160f81c60f81b82826002026002018151811061186157fe5b60200101906001600160f81b031916908160001a905350828482600c016020811061188857fe5b825191901a600f1690811061189957fe5b602001015160f81c60f81b8282600202600301815181106118b657fe5b60200101906001600160f81b031916908160001a905350600101611809565b50949350505050565b60015460ff165b90565b60015461010090046001600160a01b0316331461190457600080fd5b6001600160a01b038116600081815260026020908152604091829020805460ff19166001179055815192835290517fab1e36a08176cc33d01e126bdd6936182fcd21fb3c638e5a01ff151978dc829d9281900390910190a150565b61196f61196a612758565b6127c3565b565b3360009081526002602052604090205460ff16151560011461199257600080fd5b33600090815260046020908152604080832093835292905220600901805460ff19169055565b60026020526000908152604090205460ff1681565b6119d86114a3612758565b611a135760405162461bcd60e51b8152600401808060200182810382526030815260200180612a6b6030913960400191505060405180910390fd5b611a1c8161280b565b50565b60036020526000908152604090205481565b611a3c6114a3612758565b611a775760405162461bcd60e51b8152600401808060200182810382526030815260200180612a6b6030913960400191505060405180910390fd5b60015460ff1615611ac2576040805162461bcd60e51b815260206004820152601060248201526f14185d5cd8589b194e881c185d5cd95960821b604482015290519081900360640190fd5b6001805460ff1916811790557f62e78cea01bee320cd4e420270b5ea74000d11b0c9f74754ebdbfc544b05a258611564612758565b60015461010090046001600160a01b031681565b3360009081526002602052604081205460ff161515600114611b2c57600080fd5b5033600090815260046020908152604080832085845282528083206001600160a01b0385168452600a0190915290205492915050565b3360009081526002602052604090205460ff161515600114611b8357600080fd5b3360009081526004602090815260408083209483529390529190912060070155565b6040805180820190915260208082527f19457468657265756d205369676e6564204d6573736167653a0a303030303030908201528151600091906039820190620f423f811115611bf457600080fd5b6000620186a05b8015611c48576000818481611c0c57fe5b04905080611c235782611c235750600a9004611bfb565b80820290930392600190920191600a8260019096019504915060300180855350611bfb565b81611c5657601b9150611c5d565b601a820191505b818552600085886040516020018083805190602001908083835b60208310611c965780518252601f199092019160209182019101611c77565b51815160209384036101000a600019018019909216911617905285519190930192850191508083835b60208310611cde5780518252601f199092019160209182019101611cbf565b6001836020036101000a03801982511681845116808217855250505050505090500192505050604051602081830303815290604052805190602001209050809650505050505050919050565b60015460ff1615611d75576040805162461bcd60e51b815260206004820152601060248201526f14185d5cd8589b194e881c185d5cd95960821b604482015290519081900360640190fd5b3360009081526002602052604090205460ff161515600114611d9657600080fd5b33600090815260036020526040902054611db790600163ffffffff6126bc16565b3360008181526003602090815260408083208590556004825280832085845282529091208381556001810180546001600160a01b0319169093179092558a51611e08916002840191908d01906129d2565b508851611e1e90600383019060208c01906129d2565b508751611e3490600483019060208b01906129d2565b50866001811115611e4157fe5b60058201805460ff191660018381811115611e5857fe5b021790555085816006018190555084816007018190555083816008018190555060018160090160006101000a81548160ff021916908315150217905550828160090160016101000a81548160ff0219169083151502179055507fddfcdc668b68089e13dd0a26eaf22bf6780e4f4bac4d98edb40e8e3f50ef5ee781600001548260010160009054906101000a90046001600160a01b031683600201846003018560050160009054906101000a900460ff168660060154876007015488600801548960090160009054906101000a900460ff168a60090160019054906101000a900460ff16604051808b81526020018a6001600160a01b03166001600160a01b031681526020018060200180602001896001811115611f7257fe5b60ff168152602081018990526040810188905260608101879052851515608082015284151560a082015260c0848203810184528c546002600182161561010002600019019091160490820181905260e0909101908c9080156120155780601f10611fea57610100808354040283529160200191612015565b820191906000526020600020905b815481529060010190602001808311611ff857829003601f168201915b505083810382528a54600260001961010060018416150201909116048082526020909101908b9080156120895780601f1061205e57610100808354040283529160200191612089565b820191906000526020600020905b81548152906001019060200180831161206c57829003601f168201915b50509c5050505050505050505050505060405180910390a150505050505050505050565b60015461010090046001600160a01b031633146120c957600080fd5b6001600160a01b03166000908152600260205260409020805460ff19169055565b3360009081526002602052604081205460ff16151560011461210b57600080fd5b503360009081526005602052604090205490565b60015460ff161561216a576040805162461bcd60e51b815260206004820152601060248201526f14185d5cd8589b194e881c185d5cd95960821b604482015290519081900360640190fd5b6001600160a01b03831660009081526004602090815260408083208584529091529020600901548390839060ff1615156001146121a657600080fd5b6001600160a01b0385166000908152600460209081526040808320878452909152902060078101548411156121da57600080fd5b346121f282600801548661265c90919063ffffffff16565b11156121fd57600080fd5b61223c61221782600801548661265c90919063ffffffff16565b6001600160a01b0388166000908152600560205260409020549063ffffffff6126bc16565b6001600160a01b038716600090815260056020526040902055600781015461226a908563ffffffff61271616565b6007820155336000908152600a82016020526040902054612291908563ffffffff6126bc16565b336000818152600a840160209081526040918290209390935580519182526001600160a01b038916928201929092528082018790526060810186905290517f14e9f7e3598bfdb478635015097b3c13de8bb57757b267bcb75e5ea3e3bb60fa9181900360800190a1505050505050565b60015460ff161561234c576040805162461bcd60e51b815260206004820152601060248201526f14185d5cd8589b194e881c185d5cd95960821b604482015290519081900360640190fd5b6001600160a01b03821660009081526004602090815260408083208484529091529020600681015442906123889061012c63ffffffff61271616565b1161239257600080fd5b600981015460ff6101009091041615156001146123ae57600080fd5b336000908152600a82016020526040902054806123ca57600080fd5b336000818152600a8401602052604081205560088301546108fc906123f690849063ffffffff61265c16565b6040518115909202916000818181858888f1935050505015801561241e573d6000803e3d6000fd5b5061245e61243983600801548361265c90919063ffffffff16565b6001600160a01b0386166000908152600560205260409020549063ffffffff61271616565b6001600160a01b038516600090815260056020526040902055600782015461248c908263ffffffff6126bc16565b826007018190555050505050565b60408051606480825260a08201909252606091829182908260208201818038833901905050905060005b851561250a578151600a808804976001840193919006916030830160f81b91859181106124ed57fe5b60200101906001600160f81b031916908160001a905350506124c4565b6060816040519080825280601f01601f191660200182016040528015612537576020820181803883390190505b50905060005b8281101561258c57838160018503038151811061255657fe5b602001015160f81c60f81b82828151811061256d57fe5b60200101906001600160f81b031916908160001a90535060010161253d565b50604051815191955085917fc5d2460186f7233c927e7db2dcc703c0e500b653ca82273b7bfad8045d85a4709183916020918201918291908401908083835b602083106125ea5780518252601f1990920191602091820191016125cb565b6001836020036101000a03801982511681845116808217855250505050505090500191505060405160208183030381529060405280519060200120141561265157604051806040016040528060018152602001600360fc1b8152509550505050505061175d565b509295945050505050565b60008261266b57506000611151565b8282028284828161267857fe5b04146126b55760405162461bcd60e51b8152600401808060200182810382526021815260200180612abc6021913960400191505060405180910390fd5b9392505050565b6000828201838110156126b5576040805162461bcd60e51b815260206004820152601b60248201527f536166654d6174683a206164646974696f6e206f766572666c6f770000000000604482015290519081900360640190fd5b60006126b583836040518060400160405280601e81526020017f536166654d6174683a207375627472616374696f6e206f766572666c6f770000815250612853565b3390565b60006001600160a01b0382166127a35760405162461bcd60e51b8152600401808060200182810382526022815260200180612add6022913960400191505060405180910390fd5b506001600160a01b03166000908152602091909152604090205460ff1690565b6127d460008263ffffffff6128ea16565b6040516001600160a01b038216907fcd265ebaf09df2871cc7bd4133404a235ba12eff2041bb89d9c714a2621c7c7e90600090a250565b61281c60008263ffffffff61295116565b6040516001600160a01b038216907f6719d08c1888103bea251a4ed56406bd0c3e69723c8a1686e017e7bbe159b6f890600090a250565b600081848411156128e25760405162461bcd60e51b81526004018080602001828103825283818151815260200191508051906020019080838360005b838110156128a757818101518382015260200161288f565b50505050905090810190601f1680156128d45780820380516001836020036101000a031916815260200191505b509250505060405180910390fd5b505050900390565b6128f4828261275c565b61292f5760405162461bcd60e51b8152600401808060200182810382526021815260200180612a9b6021913960400191505060405180910390fd5b6001600160a01b0316600090815260209190915260409020805460ff19169055565b61295b828261275c565b156129ad576040805162461bcd60e51b815260206004820152601f60248201527f526f6c65733a206163636f756e7420616c72656164792068617320726f6c6500604482015290519081900360640190fd5b6001600160a01b0316600090815260209190915260409020805460ff19166001179055565b828054600181600116156101000203166002900490600052602060002090601f016020900481019282601f10612a1357805160ff1916838001178555612a40565b82800160010185558215612a40579182015b82811115612a40578251825591602001919060010190612a25565b50612a4c929150612a50565b5090565b6118e591905b80821115612a4c5760008155600101612a5656fe506175736572526f6c653a2063616c6c657220646f6573206e6f742068617665207468652050617573657220726f6c65526f6c65733a206163636f756e7420646f6573206e6f74206861766520726f6c65536166654d6174683a206d756c7469706c69636174696f6e206f766572666c6f77526f6c65733a206163636f756e7420697320746865207a65726f2061646472657373a265627a7a723158209329fb3cab94fa31014a958c7db4c4d38a4e3e4ad4ccabdec97586df96db7f4c64736f6c634300050c0032526f6c65733a206163636f756e7420697320746865207a65726f2061646472657373",
  "source": "pragma solidity ^0.5.0;\n\n\n/// @title This a contract for Hosting Movies on Blockchain for theaters\n/// @author Sarang Parikh <sarangparikh22@gmail.com><www.github.com/sarangparikh22>\n/// @notice The contract was created specially for the Consensys Developer Bootcamp \n/// @dev All the functions here are safely implemented with TDD\n\nimport \"./SafeMath.sol\";\nimport \"./Pausable.sol\";\nimport \"./Util.sol\";\n\ncontract MoviesBlockbusterEvents is Pausable, Util{\n\n    // State Variables\n    using SafeMath for uint;\n    address payable public owner;\n    enum Format {TWOD, THREED}\n    \n    \n    // Events\n    event RegisterHall(address hall);\n    event AddMovie(uint movieID, address hall, string movieName, string movieIMDB, Format format, uint time, uint seatsLeft, uint price, bool active, bool cancellation);\n    event BuyTicket(address buyer, address hall, uint movieID, uint tickets);\n    \n    // Mappings\n    mapping(address =>  bool) public hallMapping;\n    mapping(address => uint) public hallMovieCountMapping;\n    mapping(address => mapping(uint  => Movie)) public hallMovieCollectionMapping;\n    mapping(address => uint) public totalRevenue;\n\n    \n    // Structures\n    struct Movie{\n        uint movieID;\n        address hall;\n        string movieName;\n        string movieIMDB;\n        string trailer;\n        Format format;\n        uint time;\n        uint seatsLeft;\n        uint price;\n        bool active;\n        bool cancellation;\n        mapping(address => uint) viewers;\n    }\n    \n    // Modifiers\n    modifier onlyOwner{\n        require(msg.sender == owner);\n        _;\n    }\n    modifier onlyRegisteredHalls {\n        require(hallMapping[msg.sender] == true);\n        _;\n    }\n    \n    modifier isActive(address _hall, uint _movieID) {\n        require(hallMovieCollectionMapping[_hall][_movieID].active == true);\n        _;\n    }\n    \n    // Constructor\n    constructor() public {\n        owner = msg.sender;\n    }\n    \n    // Platform Functions - Only Owner can Execute these\n\n    /// @notice Registration of Hall\n    /// @dev It can be only called by the owner of the Contract\n    /// @param _hall  Address of the Hall\n    function registerHall(address _hall) public onlyOwner{\n        hallMapping[_hall] = true;\n        emit RegisterHall(_hall);\n    }\n    \n    /// @notice Unegistration of Hall\n    /// @dev It can be only called by the owner of the Contract\n    /// @param _hall  Address of the Hall\n    function unregisterHall(address _hall) public onlyOwner{\n        hallMapping[_hall]  = false;\n    }\n    \n    // Hall Functions - Only Registered Hall can perform this\n\n    /// @notice Adds Movie into the List\n    /// @dev It can be only called by the Registered Halls.\n    /// @param _movieName Name of the Movie\n    /// @param _movieIMDB IMDB ID of the Movie for getting data\n    /// @param _trailer Link of the Trailer of the Movie\n    /// @param _format 0 for 2D and 1 for 3D\n    /// @param _time Date and Time of the Movie in epoch format\n    /// @param _totalSeats Total no. of Seats Allocated\n    /// @param _price Price per Ticket\n    /// @param _cancellation True for allow refund and False for not allow refund\n    function addMovie(string memory _movieName, string memory _movieIMDB, string memory _trailer, uint _format, uint _time, uint _totalSeats, uint _price, bool _cancellation) public whenNotPaused onlyRegisteredHalls{\n        hallMovieCountMapping[msg.sender] = hallMovieCountMapping[msg.sender].add(1);\n        uint movieID = hallMovieCountMapping[msg.sender];\n        Movie storage m = hallMovieCollectionMapping[msg.sender][movieID];\n        m.movieID = movieID;\n        m.hall = msg.sender;\n        m.movieName = _movieName;\n        m.movieIMDB = _movieIMDB;\n        m.trailer = _trailer;\n        m.format = Format(_format);\n        m.time = _time;\n        m.seatsLeft = _totalSeats;\n        m.price = _price;\n        m.active = true;\n        m.cancellation = _cancellation;\n        emit AddMovie(m.movieID, m.hall, m.movieName, m.movieIMDB, m.format, m.time, m.seatsLeft, m.price, m.active, m.cancellation);\n    }\n\n    /// @notice Halt booking for Movie\n    /// @dev It can be only called by the Registered Halls.\n    /// @param _movieID Movie ID by the Particular Hall\n    function stopBooking(uint _movieID) public onlyRegisteredHalls {\n        Movie storage m = hallMovieCollectionMapping[msg.sender][_movieID];\n        m.active = false;\n    }\n    /// @notice Resume booking for Movie\n    /// @dev It can be only called by the Registered Halls.\n    /// @param _movieID Movie ID by the Particular Hall\n    function startBooking(uint _movieID) public onlyRegisteredHalls {\n        Movie storage m = hallMovieCollectionMapping[msg.sender][_movieID];\n        m.active = true;\n    }\n\n    /// @notice Increase or Decrease the Seat quota\n    /// @dev It can be only called by the Registered Halls.\n    /// @param _movieID Movie ID by the Particular Hall\n    /// @param _tickets No. of Tickets to be set\n    function setSeats(uint _movieID, uint _tickets) public onlyRegisteredHalls {\n        Movie storage m = hallMovieCollectionMapping[msg.sender][_movieID];\n        m.seatsLeft = _tickets;\n    }\n    /// @notice Verify Viewer by the Theater Authorities\n    /// @dev It can be only called by the Registered Halls.\n    /// @param _movieID Movie ID by the Particular Hall\n    /// @param _viewer Address of the Viewer to be verified\n    /// @return number of tickets owned by the viewer\n    function verifyViewerByHall(uint _movieID, address _viewer) public view onlyRegisteredHalls returns(uint){\n        Movie storage m = hallMovieCollectionMapping[msg.sender][_movieID];\n        return m.viewers[_viewer];\n    }\n    /// @notice Get Earning of the Hall from Bought Tickets\n    /// @dev It can be only called by the Registered Halls.\n    /// @return Total income they received\n    function earning() public view onlyRegisteredHalls returns(uint) {\n        return totalRevenue[msg.sender];\n    }\n    /// @notice Withdraw Money by the Hall\n    /// @dev It can be only called by the Registered Halls.\n    function withdraw() public whenNotPaused onlyRegisteredHalls {\n        msg.sender.transfer(totalRevenue[msg.sender]);\n        totalRevenue[msg.sender] = 0;\n    }\n    \n    // User Functions - This can be called by anyone\n\n    /// @notice Buy Ticket for the Movie\n    /// @dev The contract should not be paused and Movie should be Active\n    /// @param _hall Address of the Movie Hall\n    /// @param _movieID Movie ID by the Particular Hall\n    /// @param _tickets Number of tickets to be purchased\n    function buyTicket(address _hall, uint _movieID, uint _tickets) public payable whenNotPaused isActive(_hall,_movieID) {\n        Movie storage m = hallMovieCollectionMapping[_hall][_movieID];\n        require(_tickets <= m.seatsLeft);\n        require(_tickets.mul(m.price) <= msg.value);\n        totalRevenue[_hall] = totalRevenue[_hall].add(_tickets.mul(m.price));\n        m.seatsLeft = m.seatsLeft.sub(_tickets);\n        m.viewers[msg.sender] = m.viewers[msg.sender].add(_tickets);\n        emit BuyTicket(msg.sender, _hall, _movieID, _tickets);\n    }\n    \n    // Meta - Transaction Start\n    function metaBuyTicket(bytes memory _sig, uint _nonce, address _hall, uint _movieID, uint _tickets) public payable whenNotPaused isActive(_hall,_movieID) {\n        string memory conStr = strConcat(uintToString(_nonce), toString(_hall), uintToString(_movieID), uintToString(_tickets));\n        bytes32 hashFromData = hash(conStr);\n        address signer = recover(hashFromData, _sig);\n        \n        Movie storage m = hallMovieCollectionMapping[_hall][_movieID];\n        require(_tickets <= m.seatsLeft);\n        require(_tickets.mul(m.price) <= msg.value);\n        totalRevenue[_hall] = totalRevenue[_hall].add(_tickets.mul(m.price));\n        m.seatsLeft = m.seatsLeft.sub(_tickets);\n        m.viewers[signer] = m.viewers[signer].add(_tickets);\n        emit BuyTicket(signer, _hall, _movieID, _tickets);\n    }\n\n    // Meta - Transaction End\n\n\n\n    /// @notice User Verify their Booking\n    /// @dev It can be only called by any user.\n    /// @param _hall Address of the Movie Hall\n    /// @param _movieID Movie ID by the Particular Hall\n    /// @return No. of Tickets the hold\n    function verifyViewer(address _hall, uint _movieID) public view returns(uint){\n        Movie storage m = hallMovieCollectionMapping[_hall][_movieID];\n        return m.viewers[msg.sender];\n    }\n    \n    /// @notice Request Refund\n    /// @dev It can be called when contract is not Paused and within Cancellation Period of 5 Mins. Cancellation should also be available for the Movie\n    /// @param _hall Address of the Movie Hall\n    /// @param _movieID Movie ID by the Particular Hall\n    function reqRefund(address _hall, uint _movieID) public whenNotPaused {\n        Movie storage m = hallMovieCollectionMapping[_hall][_movieID];\n        require(m.time.sub(5 minutes) > now);\n        require(m.cancellation == true);\n        uint tickets = m.viewers[msg.sender];\n        require(tickets > 0);\n        m.viewers[msg.sender] = 0;\n        msg.sender.transfer(tickets.mul(m.price));\n        totalRevenue[_hall] =  totalRevenue[_hall].sub(tickets.mul(m.price));\n        m.seatsLeft = m.seatsLeft.add(tickets);\n    }\n    \n    // Ops\n    \n\n}\n",
  "sourcePath": "/home/saru/Blockchain/Final-Project/FYP/blockbuster-events/contracts/MoviesBlockbusterEvents.sol",
  "compiler": {
    "name": "solc",
    "version": "0.5.12+commit.7709ece9.Emscripten.clang"
  },
  "schemaVersion": "3.0.20",
  "updatedAt": "2020-04-03T06:39:36.197Z",
  "networkType": "ethereum",
  "devdoc": {
    "methods": {
      "addMovie(string,string,string,uint256,uint256,uint256,uint256,bool)": {
        "details": "It can be only called by the Registered Halls.",
        "params": {
          "_cancellation": "True for allow refund and False for not allow refund",
          "_format": "0 for 2D and 1 for 3D",
          "_movieIMDB": "IMDB ID of the Movie for getting data",
          "_movieName": "Name of the Movie",
          "_price": "Price per Ticket",
          "_time": "Date and Time of the Movie in epoch format",
          "_totalSeats": "Total no. of Seats Allocated",
          "_trailer": "Link of the Trailer of the Movie"
        }
      },
      "buyTicket(address,uint256,uint256)": {
        "details": "The contract should not be paused and Movie should be Active",
        "params": {
          "_hall": "Address of the Movie Hall",
          "_movieID": "Movie ID by the Particular Hall",
          "_tickets": "Number of tickets to be purchased"
        }
      },
      "earning()": {
        "details": "It can be only called by the Registered Halls.",
        "return": "Total income they received"
      },
      "pause()": {
        "details": "Called by a pauser to pause, triggers stopped state."
      },
      "paused()": {
        "details": "Returns true if the contract is paused, and false otherwise."
      },
      "registerHall(address)": {
        "details": "It can be only called by the owner of the Contract",
        "params": {
          "_hall": "Address of the Hall"
        }
      },
      "reqRefund(address,uint256)": {
        "details": "It can be called when contract is not Paused and within Cancellation Period of 5 Mins. Cancellation should also be available for the Movie",
        "params": {
          "_hall": "Address of the Movie Hall",
          "_movieID": "Movie ID by the Particular Hall"
        }
      },
      "setSeats(uint256,uint256)": {
        "details": "It can be only called by the Registered Halls.",
        "params": {
          "_movieID": "Movie ID by the Particular Hall",
          "_tickets": "No. of Tickets to be set"
        }
      },
      "startBooking(uint256)": {
        "details": "It can be only called by the Registered Halls.",
        "params": {
          "_movieID": "Movie ID by the Particular Hall"
        }
      },
      "stopBooking(uint256)": {
        "details": "It can be only called by the Registered Halls.",
        "params": {
          "_movieID": "Movie ID by the Particular Hall"
        }
      },
      "unpause()": {
        "details": "Called by a pauser to unpause, returns to normal state."
      },
      "unregisterHall(address)": {
        "details": "It can be only called by the owner of the Contract",
        "params": {
          "_hall": "Address of the Hall"
        }
      },
      "verifyViewer(address,uint256)": {
        "details": "It can be only called by any user.",
        "params": {
          "_hall": "Address of the Movie Hall",
          "_movieID": "Movie ID by the Particular Hall"
        },
        "return": "No. of Tickets the hold"
      },
      "verifyViewerByHall(uint256,address)": {
        "details": "It can be only called by the Registered Halls.",
        "params": {
          "_movieID": "Movie ID by the Particular Hall",
          "_viewer": "Address of the Viewer to be verified"
        },
        "return": "number of tickets owned by the viewer"
      },
      "withdraw()": {
        "details": "It can be only called by the Registered Halls."
      }
    }
  },
  "userdoc": {
    "methods": {
      "addMovie(string,string,string,uint256,uint256,uint256,uint256,bool)": {
        "notice": "Adds Movie into the List"
      },
      "buyTicket(address,uint256,uint256)": {
        "notice": "Buy Ticket for the Movie"
      },
      "earning()": {
        "notice": "Get Earning of the Hall from Bought Tickets"
      },
      "registerHall(address)": {
        "notice": "Registration of Hall"
      },
      "reqRefund(address,uint256)": {
        "notice": "Request Refund"
      },
      "setSeats(uint256,uint256)": {
        "notice": "Increase or Decrease the Seat quota"
      },
      "startBooking(uint256)": {
        "notice": "Resume booking for Movie"
      },
      "stopBooking(uint256)": {
        "notice": "Halt booking for Movie"
      },
      "unregisterHall(address)": {
        "notice": "Unegistration of Hall"
      },
      "verifyViewer(address,uint256)": {
        "notice": "User Verify their Booking"
      },
      "verifyViewerByHall(uint256,address)": {
        "notice": "Verify Viewer by the Theater Authorities"
      },
      "withdraw()": {
        "notice": "Withdraw Money by the Hall"
      }
    }
  }
}