{
  "contractName": "Util",
  "abi": [
    {
      "constant": true,
      "inputs": [
        {
          "internalType": "uint256",
          "name": "v",
          "type": "uint256"
        }
      ],
      "name": "uintToString",
      "outputs": [
        {
          "internalType": "string",
          "name": "",
          "type": "string"
        }
      ],
      "payable": false,
      "stateMutability": "pure",
      "type": "function"
    },
    {
      "constant": true,
      "inputs": [
        {
          "internalType": "string",
          "name": "_a",
          "type": "string"
        },
        {
          "internalType": "string",
          "name": "_b",
          "type": "string"
        },
        {
          "internalType": "string",
          "name": "_c",
          "type": "string"
        },
        {
          "internalType": "string",
          "name": "_d",
          "type": "string"
        }
      ],
      "name": "strConcat",
      "outputs": [
        {
          "internalType": "string",
          "name": "",
          "type": "string"
        }
      ],
      "payable": false,
      "stateMutability": "pure",
      "type": "function"
    },
    {
      "constant": true,
      "inputs": [
        {
          "internalType": "bytes32",
          "name": "hash",
          "type": "bytes32"
        },
        {
          "internalType": "bytes",
          "name": "signature",
          "type": "bytes"
        }
      ],
      "name": "recover",
      "outputs": [
        {
          "internalType": "address",
          "name": "",
          "type": "address"
        }
      ],
      "payable": false,
      "stateMutability": "pure",
      "type": "function"
    },
    {
      "constant": true,
      "inputs": [
        {
          "internalType": "string",
          "name": "message",
          "type": "string"
        }
      ],
      "name": "hash",
      "outputs": [
        {
          "internalType": "bytes32",
          "name": "",
          "type": "bytes32"
        }
      ],
      "payable": false,
      "stateMutability": "pure",
      "type": "function"
    },
    {
      "constant": true,
      "inputs": [
        {
          "internalType": "address",
          "name": "_addr",
          "type": "address"
        }
      ],
      "name": "toString",
      "outputs": [
        {
          "internalType": "string",
          "name": "",
          "type": "string"
        }
      ],
      "payable": false,
      "stateMutability": "pure",
      "type": "function"
    }
  ],
  "bytecode": "0x608060405234801561001057600080fd5b50610c46806100206000396000f3fe608060405234801561001057600080fd5b50600436106100575760003560e01c806319045a251461005c57806345e965cd1461012357806356ca623e146103cb578063b411ee94146103f1578063e9395679146104a7575b600080fd5b6101076004803603604081101561007257600080fd5b81359190810190604081016020820135600160201b81111561009357600080fd5b8201836020820111156100a557600080fd5b803590602001918460018302840111600160201b831117156100c657600080fd5b91908080601f0160208091040260200160405190810160405280939291908181526020018383808284376000920191909152509295506104c4945050505050565b604080516001600160a01b039092168252519081900360200190f35b6103566004803603608081101561013957600080fd5b810190602081018135600160201b81111561015357600080fd5b82018360208201111561016557600080fd5b803590602001918460018302840111600160201b8311171561018657600080fd5b91908080601f0160208091040260200160405190810160405280939291908181526020018383808284376000920191909152509295949360208101935035915050600160201b8111156101d857600080fd5b8201836020820111156101ea57600080fd5b803590602001918460018302840111600160201b8311171561020b57600080fd5b91908080601f0160208091040260200160405190810160405280939291908181526020018383808284376000920191909152509295949360208101935035915050600160201b81111561025d57600080fd5b82018360208201111561026f57600080fd5b803590602001918460018302840111600160201b8311171561029057600080fd5b91908080601f0160208091040260200160405190810160405280939291908181526020018383808284376000920191909152509295949360208101935035915050600160201b8111156102e257600080fd5b8201836020820111156102f457600080fd5b803590602001918460018302840111600160201b8311171561031557600080fd5b91908080601f016020809104026020016040519081016040528093929190818152602001838380828437600092019190915250929550610597945050505050565b6040805160208082528351818301528351919283929083019185019080838360005b83811015610390578181015183820152602001610378565b50505050905090810190601f1680156103bd5780820380516001836020036101000a031916815260200191505b509250505060405180910390f35b610356600480360360208110156103e157600080fd5b50356001600160a01b031661074c565b6104956004803603602081101561040757600080fd5b810190602081018135600160201b81111561042157600080fd5b82018360208201111561043357600080fd5b803590602001918460018302840111600160201b8311171561045457600080fd5b91908080601f0160208091040260200160405190810160405280939291908181526020018383808284376000920191909152509295506108ca945050505050565b60408051918252519081900360200190f35b610356600480360360208110156104bd57600080fd5b5035610a4f565b60008060008084516041146104df5760009350505050610591565b50505060208201516040830151606084015160001a601b81101561050157601b015b8060ff16601b1415801561051957508060ff16601c14155b1561052a5760009350505050610591565b6040805160008152602080820180845289905260ff8416828401526060820186905260808201859052915160019260a0808401939192601f1981019281900390910190855afa158015610581573d6000803e3d6000fd5b5050506020604051035193505050505b92915050565b606080859050606085905060608590506060859050606081518351855187510101016040519080825280601f01601f1916602001820160405280156105e3576020820181803883390190505b509050806000805b875181101561063c5787818151811061060057fe5b602001015160f81c60f81b83838060010194508151811061061d57fe5b60200101906001600160f81b031916908160001a9053506001016105eb565b5060005b86518110156106915786818151811061065557fe5b602001015160f81c60f81b83838060010194508151811061067257fe5b60200101906001600160f81b031916908160001a905350600101610640565b5060005b85518110156106e6578581815181106106aa57fe5b602001015160f81c60f81b8383806001019450815181106106c757fe5b60200101906001600160f81b031916908160001a905350600101610695565b5060005b845181101561073b578481815181106106ff57fe5b602001015160f81c60f81b83838060010194508151811061071c57fe5b60200101906001600160f81b031916908160001a9053506001016106ea565b50909b9a5050505050505050505050565b604080518082018252601081526f181899199a1a9b1b9c1cb0b131b232b360811b60208201528151602a80825260608281019094526001600160a01b03851692918491602082018180388339019050509050600360fc1b816000815181106107b057fe5b60200101906001600160f81b031916908160001a905350600f60fb1b816001815181106107d957fe5b60200101906001600160f81b031916908160001a90535060005b60148110156108bf578260048583600c016020811061080e57fe5b1a60f81b6001600160f81b031916901c60f81c60ff168151811061082e57fe5b602001015160f81c60f81b82826002026002018151811061084b57fe5b60200101906001600160f81b031916908160001a905350828482600c016020811061087257fe5b825191901a600f1690811061088357fe5b602001015160f81c60f81b8282600202600301815181106108a057fe5b60200101906001600160f81b031916908160001a9053506001016107f3565b50925050505b919050565b6040805180820190915260208082527f19457468657265756d205369676e6564204d6573736167653a0a303030303030908201528151600091906039820190620f423f81111561091957600080fd5b6000620186a05b801561096d57600081848161093157fe5b0490508061094857826109485750600a9004610920565b80820290930392600190920191600a8260019096019504915060300180855350610920565b8161097b57601b9150610982565b601a820191505b818552600085886040516020018083805190602001908083835b602083106109bb5780518252601f19909201916020918201910161099c565b51815160209384036101000a600019018019909216911617905285519190930192850191508083835b60208310610a035780518252601f1990920191602091820191016109e4565b6001836020036101000a03801982511681845116808217855250505050505090500192505050604051602081830303815290604052805190602001209050809650505050505050919050565b60408051606480825260a08201909252606091829182908260208201818038833901905050905060005b8515610abf578151600a808804976001840193919006916030830160f81b9185918110610aa257fe5b60200101906001600160f81b031916908160001a90535050610a79565b6060816040519080825280601f01601f191660200182016040528015610aec576020820181803883390190505b50905060005b82811015610b41578381600185030381518110610b0b57fe5b602001015160f81c60f81b828281518110610b2257fe5b60200101906001600160f81b031916908160001a905350600101610af2565b50604051815191955085917fc5d2460186f7233c927e7db2dcc703c0e500b653ca82273b7bfad8045d85a4709183916020918201918291908401908083835b60208310610b9f5780518252601f199092019160209182019101610b80565b6001836020036101000a038019825116818451168082178552505050505050905001915050604051602081830303815290604052805190602001201415610c0657604051806040016040528060018152602001600360fc1b815250955050505050506108c5565b50929594505050505056fea265627a7a72315820f27bf459e14192b5e1c2cf29197249ba0f4ce38369dbe4e53605d430f7172de064736f6c634300050c0032",
  "source": "pragma solidity ^0.5.0;\n\ncontract Util{\n    function uintToString(uint v) public pure returns (string memory) {\n        string memory str;\n        uint maxlength = 100;\n        bytes memory reversed = new bytes(maxlength);\n        uint i = 0;\n        while (v != 0) {\n            uint remainder = v % 10;\n            v = v / 10;\n            reversed[i++] = byte(uint8(48 + remainder));\n        }\n        bytes memory s = new bytes(i);\n        for (uint j = 0; j < i; j++) {\n            s[j] = reversed[i - 1 - j];\n        }\n        str = string(s);\n        if(keccak256(abi.encodePacked(str)) == keccak256(\"\")){\n            return \"0\";\n        }\n        return str;\n    }\n    function strConcat(string memory _a, string memory _b, string memory _c, string memory _d) pure public  returns (string memory){\n    bytes memory _ba = bytes(_a);\n    bytes memory _bb = bytes(_b);\n    bytes memory _bc = bytes(_c);\n    bytes memory _bd = bytes(_d);\n\n    string memory abcde = new string(_ba.length + _bb.length + _bc.length + _bd.length);\n    bytes memory babcde = bytes(abcde);\n    uint k = 0;\n    for (uint i = 0; i < _ba.length; i++) babcde[k++] = _ba[i];\n    for (uint i = 0; i < _bb.length; i++) babcde[k++] = _bb[i];\n    for (uint i = 0; i < _bc.length; i++) babcde[k++] = _bc[i];\n    for (uint i = 0; i < _bd.length; i++) babcde[k++] = _bd[i];\n    return string(babcde);\n}\n\nfunction recover(bytes32 hash, bytes memory signature)\n        public\n        pure\n        returns (address)\n      {\n        bytes32 r;\n        bytes32 s;\n        uint8 v;\n    \n        if (signature.length != 65) {\n          return (address(0));\n        }\n    \n        assembly {\n          r := mload(add(signature, 0x20))\n          s := mload(add(signature, 0x40))\n          v := byte(0, mload(add(signature, 0x60)))\n        }\n    \n        if (v < 27) {\n          v += 27;\n        }\n    \n        if (v != 27 && v != 28) {\n          return (address(0));\n        } else {\n          return ecrecover(hash, v, r, s);\n        }\n    }\n    \n    function hash(string memory message) public pure returns(bytes32){\n    \n        string memory header = \"\\x19Ethereum Signed Message:\\n000000\";\n    \n        uint256 lengthOffset;\n        uint256 length;\n        assembly {\n          // The first word of a string is its length\n          length := mload(message)\n    \n          // The beginning of the base-10 message length in the prefix\n          lengthOffset := add(header, 57)\n        }\n    \n        // Maximum length we support\n        require(length <= 999999);\n    \n        // The length of the message's length in base-10\n        uint256 lengthLength = 0;\n    \n        // The divisor to get the next left-most message length digit\n        uint256 divisor = 100000;\n    \n        // Move one digit of the message length to the right at a time\n        while (divisor != 0) {\n    \n          // The place value at the divisor\n          uint256 digit = length / divisor;\n    \n          if (digit == 0) {\n            // Skip leading zeros\n            if (lengthLength == 0) {\n              divisor /= 10;\n              continue;\n            }\n          }\n    \n          // Found a non-zero digit or non-leading zero digit\n          lengthLength++;\n    \n          // Remove this digit from the message length's current value\n          length -= digit * divisor;\n    \n          // Shift our base-10 divisor over\n          divisor /= 10;\n          \n          // Convert the digit to its ASCII representation (man ascii)\n          digit += 0x30;\n    \n          // Move to the next character and write the digit\n          lengthOffset++;\n          assembly {\n            mstore8(lengthOffset, digit)\n          }\n        }\n    \n        // The null string requires exactly 1 zero (unskip 1 leading 0)\n        if (lengthLength == 0) {\n          lengthLength = 1 + 0x19 + 1;\n    \n        } else {\n          lengthLength += 1 + 0x19;\n        }\n    \n        // Truncate the tailing zeros from the header\n        assembly {\n          mstore(header, lengthLength)\n        }\n    \n        // Perform the elliptic curve recover operation\n        bytes32 check = keccak256(abi.encodePacked(header, message));\n        return check;\n    }\n    function toString(address _addr) public pure returns (string memory) {\n      bytes32 value = bytes32(uint256(_addr));\n      bytes memory alphabet = \"0123456789abcdef\";\n\n      bytes memory str = new bytes(42);\n      str[0] = '0';\n      str[1] = 'x';\n      for (uint i = 0; i < 20; i++) {\n          str[2+i*2] = alphabet[uint(uint8(value[i + 12] >> 4))];\n          str[3+i*2] = alphabet[uint(uint8(value[i + 12] & 0x0f))];\n      }\n      return string(str);\n    }\n\n}",
  "sourcePath": "/home/saru/Blockchain/Final-Project/FYP/blockbuster-events/contracts/Util.sol",
  "compiler": {
    "name": "solc",
    "version": "0.5.12+commit.7709ece9.Emscripten.clang"
  },
  "schemaVersion": "3.0.20",
  "updatedAt": "2020-03-28T10:03:40.085Z",
  "devdoc": {
    "methods": {}
  },
  "userdoc": {
    "methods": {}
  }
}